:100000000C9462000C948A000C948A000C948A0070
:100010000C948A000C948A000C948A000C94E706D5
:100020000C948A000C948A000C948A000C94260686
:100030000C948A000C948A000C948A000C948A0018
:100040000C9484050C948A000C94F4050C94CE0551
:100050000C948A000C948A000C948A000C948A00F8
:100060000C948A000C948A000000000024002700F1
:100070002A0000000000250028002B0000000000DE
:1000800023002600290004040404040404040202DA
:100090000202020203030303030301020408102007
:1000A0004080010204081020010204081020000012
:1000B0000008000201000003040700000000000027
:1000C0000000A10711241FBECFEFD8E0DEBFCDBFD7
:1000D00011E0A0E0B1E0E0E2F4E102C005900D9291
:1000E000A633B107D9F722E0A6E3B1E001C01D9223
:1000F000A53FB207E1F710E0C2E6D0E004C02197C7
:10010000FE010E94030AC136D107C9F70E944308C5
:100110000C940E0A0C940000CF92DF92EF92FF92A3
:10012000DC01A03282E0B8070CF03EC0B7FD06C08B
:10013000A53BB1052CF0A4EBB0E002C0A0E0B0E01C
:100140008091DB0228E830E06901C81AD10887FDF8
:10015000D394CC0CDD1CCC0CDD1C0D2C000CEE085B
:10016000FF088091DC0228E532E0281B310987FD79
:100170003395220F331F220F331FA901330F660B54
:10018000770B9A01AB012C193D094E095F090E94BA
:10019000BE0924EB30E040E050E00E949409C20E1A
:1001A000D31EE41EF51ED6019091DA029C3098F51C
:1001B0008091DB0248E850E0481B510987FD5395C8
:1001C000440F551F440F551FA417B5078CF080919D
:1001D000DC0228E532E0281B310987FD3395220F28
:1001E000331F220F331FAD012A173B070CF4A9015F
:1001F00042505109440F551F2FB7F894892F90E0B2
:10020000FC01EE0FFF1F8E0F9F1FFC01E352FE4FFC
:10021000528341832FBFFF90EF90DF90CF900895DE
:10022000833081F028F4813099F08230A1F0089574
:100230008730A9F08830B9F08430D1F48091800003
:100240008F7D03C0809180008F7780938000089518
:1002500084B58F7702C084B58F7D84BD0895809169
:10026000B0008F7703C08091B0008F7D8093B00085
:100270000895CF93DF93282F30E0F901E255FF4F27
:100280008491F901E656FF4FD491F901EA57FF4FE7
:10029000C491CC2391F081110E941001EC2FF0E069
:1002A000EE0FFF1FE458FF4FA591B491EC91ED23A1
:1002B00081E090E021F480E002C080E090E0DF91F6
:1002C000CF9108951F93CF93DF93282F30E0F9014A
:1002D000E255FF4F8491F901E656FF4FD491F901A1
:1002E000EA57FF4FC491CC23C1F0162F81110E9411
:1002F0001001EC2FF0E0EE0FFF1FEE58FF4FA5911D
:10030000B4919FB7F894111104C08C91D095D82363
:1003100002C0EC91DE2BDC939FBFDF91CF911F9148
:100320000895CF93DF9390E0FC01E656FF4F2491B0
:10033000FC01EA57FF4F8491882361F190E0880F18
:10034000991FFC01E859FF4FC591D491FC01EE586B
:10035000FF4FA591B491611109C09FB7F8948881AE
:10036000209582238883EC912E230BC0623061F4A8
:100370009FB7F8948881322F309583238883EC913E
:100380002E2B2C939FBF06C08FB7F894E8812E2B9D
:1003900028838FBFDF91CF9108958E3008F08E5063
:1003A0008770806480937C0080917A008064809361
:1003B0007A0080917A0086FDFCCF809178002091B0
:1003C000790090E0922B08953FB7F89480913C011A
:1003D00090913D01A0913E01B0913F0126B5A89BAF
:1003E00005C02F3F19F00196A11DB11D3FBFBA2FC7
:1003F000A92F982F8827820F911DA11DB11DBC0127
:10040000CD0142E0660F771F881F991F4A95D1F7EB
:1004100008958F929F92AF92BF92CF92DF92EF9208
:10042000FF926B017C010E94E4014B015C01C1144D
:10043000D104E104F104F1F00E94E401DC01CB01FC
:1004400088199909AA09BB09883E9340A105B105FD
:1004500070F321E0C21AD108E108F10888EE880E95
:1004600083E0981EA11CB11CC114D104E104F10465
:1004700019F7DDCFFF90EF90DF90CF90BF90AF9056
:100480009F908F900895CF93DF93EC018091D402D9
:100490009091D5028C179D07C4F58091D40290915C
:1004A000D502C817D907C4F12091D8023091D902DA
:1004B000821793078CF50E948C0065E070E080E065
:1004C00090E00E9409028091D4029091D502019699
:1004D0009093D5028093D402E0CF2091D602309140
:1004E000D70228173907C4F40E948C0065E070E039
:1004F00080E090E00E9409028091D4029091D502A0
:1005000001979093D5028093D4028091D402909168
:10051000D5028C179D070CF7DF91CF910895CF92EC
:10052000DF92EF92FF920F931F93CF93DF936C01B3
:100530007A018B01C0E0D0E0CE15DF0581F0D80153
:100540006D918D01D601ED91FC910190F081E02D2E
:10055000C6010995892B11F02196EECF7E01C701C6
:10056000DF91CF911F910F91FF90EF90DF90CF908F
:100570000895FC01538D448D252F30E0842F90E0A9
:10058000821B930B541710F0CF960895019708958E
:10059000FC01918D828D981761F0828DDF01A80F8B
:1005A000B11D5D968C91928D9F5F9F73928F90E0AD
:1005B00008958FEF9FEF0895FC01918D828D98171C
:1005C00031F0828DE80FF11D858D90E008958FEF59
:1005D0009FEF0895FC01918D228D892F90E0805C22
:1005E0009F4F821B91098F739927089580E491E0B2
:1005F0000E94EA0221E0892B09F420E0822F08956D
:10060000FC01848DDF01A80FB11DA35ABF4F2C91AF
:10061000848D90E001968F739927848FA689B7897E
:100620002C93A089B1898C91837080648C93938D75
:10063000848D981306C00288F389E02D80818F7D18
:1006400080830895EF92FF920F931F93CF93DF93D0
:10065000EC0181E0888F9B8D8C8D981305C0E88913
:10066000F989808185FD26C0F62E0B8D10E00F5F85
:100670001F4F0F731127E02E8C8DE8120CC00FB6A0
:1006800007FCFACFE889F989808185FFF5CFCE0193
:100690000E940003F1CF8B8DFE01E80FF11DE35A9C
:1006A000FF4FF0829FB7F8940B8FEA89FB89808116
:1006B00080620AC09FB7F894EE89FF896083E88959
:1006C000F98980818370806480839FBF81E090E09E
:1006D000DF91CF911F910F91FF90EF900895CF93ED
:1006E000DF93EC01888D8823C9F0EA89FB8980813A
:1006F00085FD05C0A889B9898C9186FD0FC00FB60C
:1007000007FCF5CF808185FFF2CFA889B9898C914C
:1007100085FFEDCFCE010E940003E7CFDF91CF919F
:10072000089580E090E0892B29F00E94F602811163
:100730000C9400000895CF93DF93EC0160E08E816C
:100740000E94620161E08E810E94620160E08E8100
:100750000E9462018BE891E00197F1F7DF91CF9160
:100760000895CF92DF92EF92FF920F931F93CF9352
:10077000DF936C017C0187E0E80EF11CC0E0D0E063
:10078000062F10E0B8010C2E02C0759567950A94EB
:10079000E2F76170F70181917F010E946201219669
:1007A000C430D10579F7C601DF91CF911F910F9128
:1007B000FF90EF90DF90CF900C949B03CF92DF924D
:1007C000EF92FF920F931F93CF93DF93EC01F62EDE
:1007D000642F8C810E9462018D818F3F19F060E04F
:1007E0000E9462018F850F2D10E084FF25C06E01ED
:1007F00087E0C80ED11CE12CF12CB8010E2C02C0F0
:10080000759567950A94E2F76170F60181916F0121
:100810000E946201FFEFEF1AFF0A88E0E816F10478
:1008200061F7CE01DF91CF911F910F91FF90EF9073
:10083000DF90CF900C949B03B80184E07595679589
:100840008A95E1F7CE010E94B1036F2DCE01DF91B1
:10085000CF911F910F91FF90EF90DF90CF900C946C
:10086000B103CF93DF93823028F09091EC0298602F
:100870009093EC028093F0021092F10280E4809356
:10088000F20280E18093F30280E58093F40261E05C
:100890008091E1020E9491018091E2028F3F19F064
:1008A00061E00E94910161E08091E3020E94910168
:1008B000CDEDD2E09E012D5D32408091EC0284FDB1
:1008C00003C084E090E002C088E090E02196281701
:1008D00039072CF461E08E810E949101EBCF8BE30C
:1008E0009DE00197F1F760E08091E1020E946201D2
:1008F00060E08091E3020E9462018091E2028F3FFA
:1009000019F060E00E9462016091EC0264FD20C079
:1009100063E08DED92E00E94B103CBE4D6E4CE011A
:100920000197F1F763E08DED92E00E94B10321970A
:10093000F1F763E08DED92E00E94B10383E592E070
:100940000197F1F762E08DED92E00E94B1031EC0C5
:10095000606240E08DED92E00E94DE038BE496E45D
:100960000197F1F76091EC02606240E08DED92E05A
:100970000E94DE0383E592E00197F1F76091EC02BB
:10098000606240E08DED92E00E94DE036091EC0237
:10099000606240E08DED92E00E94DE0384E080938F
:1009A000ED0240E06CE08DED92E00E94DE0340E05D
:1009B00061E08DED92E00E94DE038BE39FE1019701
:1009C000F1F782E08093EE0240E066E08DED92E088
:1009D000DF91CF910C94DE0341E00E94DE0381E0C1
:1009E00090E00895089580E090E008950E94090A3B
:1009F0006115710579F0FB0101900020E9F731974D
:100A0000AF01461B570BDC01ED91FC910280F38195
:100A1000E02D099480E090E008958F929F92AF922C
:100A2000BF92CF92DF92EF92FF920F931F93CF93DB
:100A3000DF93CDB7DEB7A1970FB6F894DEBF0FBE38
:100A4000CDBF6B017C0197FF2DC06DE280E491E08A
:100A50000E9422038C0122273327A9012C193D096A
:100A60004E095F0919A2CE0181967C019AE0892E78
:100A7000912CA12CB12CCA01B901A50194010E94AD
:100A8000C609605DF70162937F01211531054105BB
:100A9000510589F7BF0180E491E00E94F804800FBE
:100AA000911F1FC09B01AC0119A28E010F5D1F4F4A
:100AB0008AE0C82ED12CE12CF12CCA01B901A70182
:100AC00096010E94C609605DF80162938F012115AD
:100AD00031054105510589F7BF0180E491E00E948D
:100AE000F804A1960FB6F894DEBF0FBECDBFDF911C
:100AF000CF911F910F91FF90EF90DF90CF90BF901B
:100B0000AF909F908F9008951F920F920FB60F9203
:100B100011242F933F938F939F93AF93BF93809113
:100B2000380190913901A0913A01B0913B01309187
:100B3000370123E0230F2D3720F40196A11DB11DAD
:100B400005C026E8230F0296A11DB11D2093370191
:100B50008093380190933901A0933A01B0933B01FF
:100B600080913C0190913D01A0913E01B0913F01E7
:100B70000196A11DB11D80933C0190933D01A0936E
:100B80003E01B0933F01BF91AF919F918F913F91F3
:100B90002F910F900FBE0F901F9018951F920F92DC
:100BA0000FB60F9211242F933F934F935F936F9340
:100BB0007F938F939F93AF93BF93EF93FF9380E4C3
:100BC00091E00E940003FF91EF91BF91AF919F913F
:100BD0008F917F916F915F914F913F912F910F90E6
:100BE0000FBE0F901F9018951F920F920FB60F9285
:100BF00011242F938F939F93EF93FF93E0915001D4
:100C0000F09151018081E0915601F091570182FDF0
:100C100012C09081809159018F5F8F7320915A018A
:100C2000821751F0E0915901F0E0E05CFE4F958FA2
:100C30008093590101C08081FF91EF919F918F9125
:100C40002F910F900FBE0F901F9018951F920F922B
:100C50000FB60F9211242F933F934F935F936F938F
:100C60007F938F939F93AF93BF93EF93FF93809165
:100C7000360187FF05C010928500109284001BC0CA
:100C800020913601022E000C330B8091010290E07E
:100C90002817390784F480913601082E000C990B2F
:100CA000FC01EE0FFF1F8E0F9F1FFC01E352FE4F52
:100CB000808186FD15C0809136018F5F809336015B
:100CC00020913601022E000C330B8091010290E03E
:100CD00028173907C4F4809136018C3064F113C0B1
:100CE00080913601082E000C990BFC01EE0FFF1FBE
:100CF0008E0F9F1FFC01E352FE4F808160E08F73D7
:100D00000E946201D8CF8091840090918500049662
:100D100080349C4918F480E49CE905C080918400EB
:100D200090918500049690938900809388008FEFBE
:100D3000809336013BC020918400309185008091E2
:100D40003601082E000C990BFC01EE0FFF1F8E0FD1
:100D50009F1FFC01E352FE4F81819281820F931FFE
:100D6000909389008093880080913601082E000CB2
:100D7000990BFC01EE0FFF1F8E0F9F1FFC01E3522A
:100D8000FE4F808186FF12C080913601082E000C34
:100D9000990BFC01EE0FFF1F8E0F9F1FFC01E3520A
:100DA000FE4F808161E08F730E946201FF91EF919D
:100DB000BF91AF919F918F917F916F915F914F9173
:100DC0003F912F910F900FBE0F901F9018951F927B
:100DD0000F920FB60F9211242F933F934F935F936F
:100DE0006F937F938F939F93AF93BF93EF93FF93F3
:100DF000809103020E94390120910702309108027C
:100E00002F5F3F4F30930802209307029091060214
:100E1000953618F096E09093020290910202943079
:100E2000C9F128F4923069F09330D1F05EC095306A
:100E300009F451C0963009F058C091E09093D30264
:100E400051C0811152C0209107023091080224360E
:100E5000310508F442C01092D302109206021CC061
:100E6000813009F042C0E091060291E09E0F90931C
:100E70000602F0E02091070230910802EE0FFF1FFA
:100E8000EE5FFD4F30872783109208021092070211
:100E900094E029C0811117C0E091060291E09E0FF5
:100EA00090930602F0E02091070230910802EE0FC5
:100EB000FF1FEE5FFD4F30872783109208021092CC
:100EC000070293E010C020910702309108022536F6
:100ED000310558F007C0811108C010920802109225
:100EE000070203C095E090930202909105029923B6
:100EF000B9F081110AC080910402882321F0809109
:100F0000040261E009C02D9A0BC08091040288237D
:100F100031F08091040260E00E94620101C02D98CE
:100F2000FF91EF91BF91AF919F918F917F916F91C1
:100F30005F914F913F912F910F900FBE0F901F9097
:100F40001895CF93109243011092420188EE93E0DE
:100F5000A0E0B0E08093440190934501A093460146
:100F6000B093470184E091E0909341018093400168
:100F700085EC90E090934D0180934C0184EC90E0DF
:100F800090934F0180934E0180EC90E0909351013B
:100F90008093500181EC90E0909353018093520133
:100FA00082EC90E0909355018093540186EC90E0A0
:100FB00090935701809356011092590110925A0153
:100FC00010925B0110925C011092E0021092DF021D
:100FD00086E191E09093DE028093DD028CE08093C5
:100FE000E102CFEFC093E2028BE08093E30284E062
:100FF0008093E40285E08093E50286E08093E60238
:1010000087E08093E7021092E8021092E9021092C2
:10101000EA021092EB021092EC0281E00E9431048D
:1010200083E08093030210920502809101028C30CC
:10103000A0F491E0980F909301028093DA0290E07F
:10104000FC01EE0FFF1F8E0F9F1FFC01E352FE4FAE
:1010500088EB9BE09283818302C0C093DA028AE02E
:1010600090E09093D5028093D40285E090E0909335
:10107000D7028093D6028FEA90E09093D9028093B2
:10108000D802CF910895789484B5826084BD84B5E8
:10109000816084BD85B5826085BD85B5816085BD73
:1010A00080916E00816080936E001092810080912B
:1010B00081008260809381008091810081608093B3
:1010C0008100809180008160809380008091B100D8
:1010D00084608093B1008091B00081608093B00003
:1010E00080917A00846080937A0080917A00826097
:1010F00080937A0080917A00816080937A00809159
:101100007A00806880937A001092C100E0915001CB
:10111000F091510182E08083E0914C01F0914D010A
:101120001082E0914E01F0914F0190E19083109276
:101130005801E0915401F091550196E09083E091BF
:101140005201F0915301908190619083E09152019E
:10115000F0915301908198609083E0915201F09159
:101160005301908190689083E0915201F091530176
:1011700090819F7D9083F8948093B0008093B1001C
:1011800094E69093B3001092B2008093700078942C
:1011900080930202109206028091030260E00E9496
:1011A000910181E08093050261E08DE00E94910150
:1011B00082E00E94310465E271E08DED92E00E94D0
:1011C000F80460E082E00E94910161E082E00E9408
:1011D00062018091DA028C3008F051C061E089E050
:1011E0000E9491018091DA02E82FF0E09F01220F26
:1011F000331FE20FF31FE352FE4F9081907C996002
:1012000090831092DB021092DC026CE00E94F709DE
:101210009CE0899FB001112440E050E09B01240F25
:10122000351FF901EE0FFF1F2E0F3F1FF901E3528B
:10123000FE4F908196FD16C04F5F5F4F4C305105B9
:1012400069F781110FC01092800082E080938100C5
:101250001092850010928400B19A80916F00826094
:1012600080936F00E091DA02F0E0CF01880F991FC0
:10127000E80FF91FE352FE4F8081806480838091E4
:10128000D4029091D5020E9443026EE171E080E4A5
:1012900091E00E94F80480E00E94CD01EC0181E021
:1012A0000E94CD018C0182E00E9439017C0166E23E
:1012B00071E080E491E00E94F804B701FF0C880B14
:1012C000990B0E940D0569E271E080E491E00E94B3
:1012D000F804BE010D2E000C880B990B0E940D0521
:1012E0006FE271E080E491E00E94F804B801110F10
:1012F000880B990B0E940D0564E271E080E491E097
:101300000E94F804CE01D7FD039695958795959593
:1013100087950E94430264E670E080E090E00E94BE
:1013200009020E949103B7CF052E97FB1EF400948B
:101330000E94AB0957FD07D00E94C60907FC03D0E5
:101340004EF40C94AB0950954095309521953F4F44
:101350004F4F5F4F089590958095709561957F4FA1
:101360008F4F9F4F08950E94E809A59F900DB49F4D
:10137000900DA49F800D911D11240895B7FF0C942A
:10138000B3090E94B309821B930B0895A1E21A2EA0
:10139000AA1BBB1BFD010DC0AA1FBB1FEE1FFF1F19
:1013A000A217B307E407F50720F0A21BB30BE40B69
:1013B000F50B661F771F881F991F1A9469F76095B0
:1013C0007095809590959B01AC01BD01CF0108956A
:1013D000A29FB001B39FC001A39F700D811D112476
:1013E000911DB29F700D811D1124911D0895991BAF
:1013F00079E004C0991F961708F0961B881F7A950C
:10140000C9F780950895EE0FFF1F0590F491E02D28
:10141000099481E090E0F8940C940E0AF894FFCFC0
:101420000000000022038F02B9026F03EA02C80223
:10143000DC0200000000EC048F02F304F2040A0A4C
:10144000524544590A00533A003B2009583A003BA0
:061450002009593A0000DA
:00000001FF
