:100000000C9463000C948B000C948B000C948B006C
:100010000C948B000C948B000C948B000C941B069E
:100020000C948B000C948B000C948B000C945F054B
:100030000C948B000C948B000C948B000C948B0014
:100040000C94BD040C948B000C942D050C940705A6
:100050000C948B000C948B000C948B000C948B00F4
:100060000C948B000C948B000000000024002700EF
:100070002A0000000000250028002B0000000000DE
:1000800023002600290004040404040404040202DA
:100090000202020203030303030301020408102007
:1000A0004080010204081020010204081020000012
:1000B0000008000201000003040700000000000027
:1000C0000000D706B40A11241FBECFEFD8E0DEBF70
:1000D000CDBF11E0A0E0B1E0EEEBFAE102C0059087
:1000E0000D92A43DB107D9F723E0A4EDB1E001C022
:1000F0001D92AA3EB207E1F710E0C2E6D0E004C0CC
:100100002197FE010E945A0BC136D107C9F70E9400
:10011000F4080C94520D0C940000833081F028F404
:10012000813099F08230A9F008958730A9F08830A5
:10013000C9F08430B1F4809180008F7D03C080913C
:1001400080008F7780938000089584B58F7784BD79
:10015000089584B58F7DFBCF8091B0008F77809319
:10016000B00008958091B0008F7DF9CFCF93DF93D9
:10017000282F30E0F901E255FF4F8491F901E6564E
:10018000FF4FD491F901EA57FF4FC491CC23A1F05E
:1001900081110E948D00EC2FF0E0EE0FFF1FE4585C
:1001A000FF4FA591B491EC91ED2381E090E009F42B
:1001B00080E0DF91CF91089580E090E0FACF1F9327
:1001C000CF93DF93282F30E0F901E255FF4F849160
:1001D000F901E656FF4FD491F901EA57FF4FC49158
:1001E000CC23A9F0162F81110E948D00EC2FF0E096
:1001F000EE0FFF1FEE58FF4FA591B4918FB7F89403
:10020000EC91111108C0D095DE23DC938FBFDF91F4
:10021000CF911F910895DE2BF8CFCF93DF9390E01D
:10022000FC01E656FF4F24918A579F4FFC018491B1
:100230008823D1F090E0880F991FFC01E859FF4F07
:10024000A591B491FC01EE58FF4FC591D491611175
:100250000EC09FB7F8948C91E22FE0958E238C937B
:100260002881E223E8839FBFDF91CF9108958FB764
:10027000F894EC91E22BEC938FBFF6CF8E3008F020
:100280008E508770806480937C0080917A008064B7
:1002900080937A0080917A0086FDFCCF809178006F
:1002A0009091790008953FB7F8948091E001909182
:1002B000E101A091E201B091E30126B5A89B05C040
:1002C0002F3F19F00196A11DB11D3FBFBA2FA92FD5
:1002D000982F8827BC01CD01620F711D811D911DD2
:1002E00042E0660F771F881F991F4A95D1F708953E
:1002F000AF92BF92CF92DF92EF92FF920F931F9334
:10030000CF93DF936C017B018B01040F151FEB0171
:100310005E01AE18BF08C017D10759F06991D60128
:10032000ED91FC910190F081E02DC6010995892B9A
:1003300079F7C501DF91CF911F910F91FF90EF9059
:10034000DF90CF90BF90AF900895FC01538D448D06
:10035000252F30E0842F90E0821B930B541710F070
:10036000CF96089501970895FC01918D828D98177D
:1003700061F0A28DAE0FBF2FB11D5D968C91928D55
:100380009F5F9F73928F90E008958FEF9FEF089586
:10039000FC01918D828D981731F0828DE80FF11D4F
:1003A000858D90E008958FEF9FEF0895FC01918D6A
:1003B000228D892F90E0805C9F4F821B91098F7363
:1003C0009927089584EE91E00E94D60121E0892BBF
:1003D00009F420E0822F089580E090E0892B29F035
:1003E0000E94E20181110C9400000895FC01A48D8B
:1003F000A80FB92FB11DA35ABF4F2C91848D90E047
:1004000001968F739927848FA689B7892C93A08929
:10041000B1898C91837080648C93938D848D9813B3
:1004200006C00288F389E02D80818F7D8083089546
:10043000EF92FF920F931F93CF93DF93EC0181E034
:10044000888F9B8D8C8D98131AC0E889F9898081DB
:1004500085FF15C09FB7F894EE89FF896083E8890E
:10046000F98980818370806480839FBF81E090E000
:10047000DF91CF911F910F91FF90EF900895F62E8D
:100480000B8D10E00F5F1F4F0F731127E02E8C8D27
:100490008E110CC00FB607FCFACFE889F98980816C
:1004A00085FFF5CFCE010E94F601F1CFEB8DEC0F69
:1004B000FD2FF11DE35AFF4FF0829FB7F8940B8F89
:1004C000EA89FB8980818062CFCFCF93DF93EC01F3
:1004D000888D8823B9F0AA89BB89E889F9898C912C
:1004E00085FD03C0808186FD0DC00FB607FCF7CFE8
:1004F0008C9185FFF2CF808185FFEDCFCE010E94E8
:10050000F601E9CFDF91CF910895089590E080E062
:100510000895CF93DF93EC0160E08E810E94DF00AD
:1005200061E08E810E94DF0060E08E810E94DF002A
:100530008BE891E00197F1F7DF91CF910895CF9289
:10054000DF92EF92FF920F931F93CF93DF936C0193
:100550007C0187E0E80EF11CD0E0C0E0062F10E03F
:10056000B8010C2E02C0759567950A94E2F7617088
:10057000F70181917F010E94DF002196C430D105EF
:1005800079F7C601DF91CF911F910F91FF90EF9006
:10059000DF90CF900C948902CF92DF92EF92FF927E
:1005A0000F931F93CF93DF93EC01F62E642F8C8172
:1005B0000E94DF008D818F3F19F060E00E94DF0014
:1005C0000F2D10E08F8584FF25C06E0187E0C80ED7
:1005D000D11CF12CE12CB8010E2C02C07595679549
:1005E0000A94E2F76170F60181916F010E94DF00C9
:1005F000FFEFEF1AFF0A88E0E816F10461F7CE0179
:10060000DF91CF911F910F91FF90EF90DF90CF90EE
:100610000C948902B80184E0759567958A95E1F795
:10062000CE010E949F026F2DCE01DF91CF911F91CD
:100630000F91FF90EF90DF90CF900C949F0241E0DC
:100640000E94CC0281E090E008958F929F92AF9239
:10065000BF920F931F93CF93DF93CDB7DEB7A197D0
:100660000FB6F894DEBF0FBECDBF19A2423008F41A
:100670004AE08E010F5D1F4F842E912CB12CA12CCE
:10068000A50194010E94220BE62FB901CA01EA30AC
:1006900044F5E05DD801EE938D01232B242B252B0F
:1006A00079F790E080E0109769F0FD01019000205B
:1006B000E9F73197AF014A1B5B0BBD0184EE91E076
:1006C0000E947801A1960FB6F894DEBF0FBECDBF91
:1006D000DF91CF911F910F91BF90AF909F908F901E
:1006E0000895E95CD7CFCF92DF92EF92FF92CF933C
:1006F000DF936C01990FEE08FF08F7FE19C06DE259
:1007000084EE91E00E941802EC0166277727CB0166
:100710006C197D098E099F094AE00E9425038C0F00
:100720009D1FDF91CF91FF90EF90DF90CF900895C4
:100730004AE0C701B601DF91CF91FF90EF90DF90C3
:10074000CF900C942503FC0101900020E9F731972C
:10075000AF01481B590BBC0184EE91E00C94780169
:10076000CF93DF93EC0184E291E00E94A30361E068
:100770008A810E94DF0060E08C81DF91CF910C9430
:10078000DF00CF93DF93EC0161E088810E940D01CF
:1007900061E08A810E940D0161E08C810E940D015F
:1007A000CE01DF91CF910C94B003FF920F931F9372
:1007B000CF93DF938C01EB011C161D0684F50E947C
:1007C000B003D7FF03C0D195C195D109C233D1057C
:1007D000ACF5F801F08061E08F2D0E940D0160E022
:1007E0008F2D0E94DF0060E0F80182810E94DF000F
:1007F00060E0F80184810E94DF00F801008111812E
:1008000061E0802F0E940D012097F9F460E0802FB5
:10081000DF91CF911F910F91FF900C94DF0086E242
:1008200091E00E94A30360E0F80182810E94DF0052
:1008300061E0F80184810E94DF00C3CFCF3FD10582
:10084000E1F2DCF2CFEFD0E0D8CFCF3FD10511F409
:1008500061E0DDCFF801FF27E255FF4FE491E3307F
:1008600041F140F4E130B1F0E230F1F0C038D105AF
:100870007CF7CCCFE73039F1E83069F1E430B1F7FB
:1008800080918000806280938000D0938B00C09321
:100890008A0004C084B5806884BDC7BDDF91CF9154
:1008A0001F910F91FF90089584B5806284BDC8BDEB
:1008B000F5CF80918000806880938000D09389007C
:1008C000C0938800EBCF8091B00080688093B00027
:1008D000C093B300E3CF8091B00080628093B000FA
:1008E000C093B400DBCFEF92FF920F931F93CF938F
:1008F000DF93EC017B01FB0101900020E9F73197C8
:100900008F01061B170B88819981009729F02A8196
:100910003B812017310788F4B8016F5F7F4F0E9439
:10092000850C0097B9F0998388831B830A832C81F7
:100930003D81232B11F4FC0110821D830C83B70130
:1009400088819981DF91CF911F910F91FF90EF9056
:100950000C944B0D88819981009711F00E94FC0B3B
:10096000198218821D821C821B821A82DF91CF910C
:100970001F910F91FF90EF9008951F920F920FB665
:100980000F9211242F933F938F939F93AF93BF9315
:100990008091DC019091DD01A091DE01B091DF0139
:1009A0003091DB0123E0230F2D3758F50196A11D6F
:1009B000B11D2093DB018093DC019093DD01A093B6
:1009C000DE01B093DF018091E0019091E101A091FF
:1009D000E201B091E3010196A11DB11D8093E001F8
:1009E0009093E101A093E201B093E301BF91AF9135
:1009F0009F918F913F912F910F900FBE0F901F905D
:100A0000189526E8230F0296A11DB11DD2CF1F9283
:100A10000F920FB60F9211242F933F934F935F9332
:100A20006F937F938F939F93AF93BF93EF93FF93B6
:100A300084EE91E00E94F601FF91EF91BF91AF919A
:100A40009F918F917F916F915F914F913F912F91E6
:100A50000F900FBE0F901F9018951F920F920FB618
:100A60000F9211242F938F939F93EF93FF93E09115
:100A7000F401F091F5018081E091FA01F091FB0120
:100A800082FD1BC090818091FD018F5F8F7320914B
:100A9000FE01821741F0E091FD01F0E0EC51FE4FC4
:100AA000958F8093FD01FF91EF919F918F912F91F1
:100AB0000F900FBE0F901F9018958081F4CF1F925A
:100AC0000F920FB60F9211242F933F934F935F9382
:100AD0006F937F938F939F93AF93BF93CF93DF9346
:100AE000EF93FF938091D401C091A502D0E087FFDE
:100AF00024C010928500109284008091D4018F5FF1
:100B00008093D4018091D401082E000C990B8C178E
:100B10009D0724F48091D4018C30C4F1809184002D
:100B200090918500049680349C4908F47AC08091A5
:100B3000840090918500049676C08091D401082E9F
:100B4000000C990B8C179D07C4F6E091D4018E2FF1
:100B5000EE0F990BFC01EE0FFF1FE80FF91FEF5787
:100B6000FD4F808186FFC9CFE091D4018E2FEE0F1B
:100B7000990BFC01EE0FFF1FE80FF91FEF57FD4F18
:100B8000808160E08F730E94DF00B7CF20918400E6
:100B900030918500E091D4018E2FEE0F990BFC016E
:100BA000EE0FFF1FE80FF91FEF57FD4F8181928174
:100BB000820F931F9093890080938800E091D40165
:100BC0008E2FEE0F990BFC01EE0FFF1FE80FF91FA0
:100BD000EF57FD4F808186FF11C0E091D4018E2F29
:100BE000EE0F990BFC01EE0FFF1FE80FF91FEF57F7
:100BF000FD4F808161E08F730E94DF00FF91EF91D4
:100C0000DF91CF91BF91AF919F918F917F916F9124
:100C10005F914F913F912F910F900FBE0F901F90BA
:100C2000189580E49CE990938900809388008FEF69
:100C30008093D401E3CF1F920F920FB60F9211242D
:100C40002F933F934F935F936F937F938F939F93D4
:100C5000AF93BF93EF93FF938091A7020E94B600DA
:100C60002091AB023091AC022F5F3F4F3093AC022A
:100C70002093AB029091AA02953618F096E09093DB
:100C8000A6029091A602943009F466C0B8F492309E
:100C9000F1F0933009F444C09091A902992309F42A
:100CA0006BC081117AC08091A802882309F463C0C7
:100CB0008091A80261E00E94DF005EC0953009F4D7
:100CC00057C0963049F791E0909377034FC0811158
:100CD000E3CF2091AB023091AC022436310528F4E9
:100CE0001092AC021092AB02D7CF10927703109201
:100CF000AA02E091AA0291E09E0F9093AA02F0E06E
:100D00002091AB023091AC02EE0FFF1FEA55FD4F70
:100D1000308727831092AC021092AB0293E019C087
:100D2000813009F0B9CFE091AA0291E09E0F909333
:100D3000AA02F0E02091AB023091AC02EE0FFF1F4F
:100D4000EA55FD4F308727831092AC021092AB0218
:100D500094E09093A602A0CF882359F22091AB0291
:100D60003091AC022536310508F496CF95E0F1CFED
:100D7000811192CFB5CF2D9AFF91EF91BF91AF9195
:100D80009F918F917F916F915F914F913F912F91A3
:100D90000F900FBE0F901F9018958091A802882386
:100DA00021F08091A80260E086CF2D98E5CF0F93C7
:100DB0001F93CF93DF93CDB7DEB76C970FB6F89440
:100DC000DEBF0FBECDBF1092E7011092E60188EEA4
:100DD00093E0A0E0B0E08093E8019093E901A09354
:100DE000EA01B093EB018AE091E09093E5018093F2
:100DF000E40185EC90E09093F1018093F00184ECA4
:100E000090E09093F3018093F20180EC90E0909356
:100E1000F5018093F40181EC90E09093F7018093C9
:100E2000F60182EC90E09093F9018093F80186EC52
:100E300090E09093FB018093FA011092FD011092D3
:100E4000FE011092FF011092000282E090E0909368
:100E5000E0038093DF0383E090E09093E2038093CC
:100E6000E10384E090E09093E4038093E30385E062
:100E700090E09093D9038093D80386E090E090931C
:100E8000DB038093DA0387E090E09093DD038093A7
:100E9000DC0389E090E09093D2038093D1038AE051
:100EA00090E09093D4038093D3038BE090E09093F1
:100EB000D6038093D50387E0E8EDF3E0DE011896D2
:100EC00001900D928A95E1F787E0E1EDF3E0DE0114
:100ED000119601900D928A95E1F71092C603109237
:100EE000C5031092C8031092C7031092CA03109250
:100EF000C90368E271E085EC93E00E9473041092EC
:100F0000CC031092CB031092CE031092CD0310921B
:100F1000D0031092CF036DE271E08BEC93E00E945E
:100F2000730487E0FE013896A3EBB3E001900D92C5
:100F30008A95E1F787E0FE013196AAEBB3E00190D4
:100F40000D928A95E1F787E0E8EDF3E0DE01569631
:100F500001900D928A95E1F787E0E1EDF3E0DE0183
:100F60001F9601900D928A95E1F71092A7031092B7
:100F7000A6031092A9031092A8031092AB0310923B
:100F8000AA0368E271E086EA93E00E94730410927B
:100F9000AD031092AC031092AF031092AE03109207
:100FA000B1031092B0036DE271E08CEA93E00E940D
:100FB000730487E0FE017696A3E9B3E001900D92F9
:100FC0008A95E1F787E0FE013F96AAE9B3E0019038
:100FD0000D928A95E1F781E08093A50310927E033C
:100FE00010927D032CE131E030937C0320937B034E
:100FF0009CE090937F039FEF909380039BE09093FE
:10100000810394E09093820395E09093830396E0AC
:101010009093840397E09093850310928603109237
:101020008703109288031092890310928A03809399
:101030008E0310928F0380E48093900380E180936D
:10104000910380E58093920361E08CE00E940D01A2
:10105000809180038F3F19F061E00E940D0161E0F3
:10106000809181030E940D010BE713E098012B573B
:10107000334080918A0384FD0DC084E090E00F5FCF
:101080001F4F281739074CF461E0F80186810E9450
:101090000D01ECCF88E090E0F2CF8BE39DE001976B
:1010A000F1F760E080917F030E94DF0060E08091B3
:1010B00081030E94DF00809180038F3F19F060E080
:1010C0000E94DF0060918A0364FD6BC063E08BE7E0
:1010D00093E00E949F020BE416E4C8010197F1F728
:1010E00063E08BE793E00E949F02C8010197F1F74C
:1010F00063E08BE793E00E949F0283E592E0019713
:10110000F1F762E08BE793E00E949F0260918A030F
:10111000606240E08BE793E00E94CC0284E0809321
:101120008B0340E06CE08BE793E00E94CC0240E050
:1011300061E08BE793E00E94CC028BE39FE1019793
:10114000F1F782E080938C0340E066E08BE793E068
:101150000E94CC0283E08093A7021092A9028091A2
:10116000A5028C3008F03CC091E0980F9093A50246
:101170008093780390E0FC01EE0FFF1FE80FF91F4A
:10118000EF57FD4F88EB9BE0928381836C960FB6FF
:10119000F894DEBF0FBECDBFDF91CF911F910F91AD
:1011A0000895606240E08BE793E00E94CC028BE4FC
:1011B00096E40197F1F760918A03606240E08BE763
:1011C00093E00E94CC0283E592E00197F1F76091F1
:1011D0008A03606240E08BE793E00E94CC0296CFE6
:1011E0008FEF80937803D2CF789484B5826084BDEA
:1011F00084B5816084BD85B5826085BD85B581601B
:1012000085BD80916E00816080936E001092810098
:101210008091810082608093810080918100816053
:101220008093810080918000816080938000809114
:10123000B10084608093B1008091B00081608093A0
:10124000B00080917A00846080937A0080917A0067
:10125000826080937A0080917A00816080937A0026
:1012600080917A00806880937A001092C100E091AA
:10127000F401F091F50182E08083E091F001F091BA
:10128000F1011082E091F201F091F30180E180839D
:101290001092FC01E091F801F091F90186E0808361
:1012A000E091F601F091F701808180618083E09107
:1012B000F601F091F701808188608083E091F6016A
:1012C000F091F701808180688083E091F601F091D0
:1012D000F70180818F7D808360E08091E3030E942D
:1012E0000D0161E08091E3030E94DF0088ED93E04F
:1012F0000E94C10381ED93E00E94C10383E391E06A
:101300000E94A30388248A9493E0992EA12CB12CE7
:1013100020E0222E20E0322E8091E1030E943E0147
:1013200028E032E0DC010E94530BA50194010E94E9
:10133000CC0A2F5F31093093D8012093D7018091D7
:10134000DF030E943E0128E032E0DC010E94530BE3
:10135000A50194010E94CC0A2F5F31093093DA0174
:101360002093D9018091E3030E94B6009195819565
:1013700091099093D6018093D5010091D7011091E6
:10138000D801C091D901D091DA018BE391E00E949C
:10139000A30324E630E0D8010E94530B2FEF30E086
:1013A00040E050E00E94CC0AC901C639D1050CF0DA
:1013B0009CC0213531050CF0D2C08E01803B9F4F7F
:1013C00024F4C6E9D0E00AE61FEFBE0183E993E00A
:1013D0000E94D503B8018AE993E00E94D5038CE707
:1013E00091E00E94A3038AE00E94B6000E9473036A
:1013F0008DE391E00E94A3038FE391E00E94A30399
:101400008BE00E94B6000E9473038DE391E00E947E
:10141000A30383E591E00E94A30389E00E943E01BB
:101420000E9473038DE391E00E94A30387E691E09D
:101430000E94A30386E00E94B6000E9473038DE31E
:1014400091E00E94A3038EE791E00E94A30387E04E
:101450000E94B6000E9473038DE391E00E94A303F3
:1014600082E991E00E94A30385E00E943E010E9470
:1014700073038DE391E00E94A30386EA91E00E944A
:10148000A3030E9453012B013C0182E3C82ED12CFF
:10149000E12CF12C0E945301641975098609970902
:1014A000683E734081059105A8F381E0C81AD10810
:1014B000E108F10828EE420E23E0521E611C711C67
:1014C000C114D104E104F10429F78CEB91E00E94EE
:1014D000A3032114310409F41FCF0E94E2018823E1
:1014E00009F41ACF0E94000017CF2135310544F0CE
:1014F000CE01821B930B8E01020F131FEC0105C05E
:101500008E01203B6FEF36079CF3CB3FD10524F4CF
:101510000B3F11050CF459CF2AEF30E0DE010E9499
:10152000530B9E01C017D1070CF49801032E000C39
:10153000440B550B0E94CC0A6901E9012AEF30E007
:10154000D8010E94530BC016D1060CF46801960115
:10155000DD0C440B550B0E94CC0A890136CFCAE63C
:10156000DFEF06E910E031CFCF93DF93C3E9D3E09B
:10157000898D9A8D0E94FC0B8B899C890E94FC0BA3
:10158000C2EBD3E0898D9A8D0E94FC0B8B899C89DC
:10159000DF91CF910C94FC0B052E97FB1EF4009469
:1015A0000E94E30A57FD07D00E94220B07FC03D0DC
:1015B0004EF40C94E30A50954095309521953F4F99
:1015C0004F4F5F4F089590958095709561957F4F2F
:1015D0008F4F9F4F08952F923F924F925F926F923D
:1015E0007F928F929F92AF92BF92CF92DF92EF92B3
:1015F000FF920F931F93CF93DF93CDB7DEB7CA1B34
:10160000DB0B0FB6F894DEBF0FBECDBF09942A885E
:10161000398848885F846E847D848C849B84AA8406
:10162000B984C884DF80EE80FD800C811B81AA8193
:10163000B981CE0FD11D0FB6F894DEBF0FBECDBF5E
:10164000ED010895A1E21A2EAA1BBB1BFD010DC0DE
:10165000AA1FBB1FEE1FFF1FA217B307E407F50762
:1016600020F0A21BB30BE40BF50B661F771F881F3E
:10167000991F1A9469F760957095809590959B01D4
:10168000AC01BD01CF010895A29FB001B39FC0017D
:10169000A39F700D811D1124911DB29F700D811D9E
:1016A0001124911D08950E94440BB7FF0895821BD9
:1016B000930B0895EE0FFF1F0590F491E02D099410
:1016C0000F931F93CF93DF938230910510F482E044
:1016D00090E0E091E803F091E90330E020E0B0E031
:1016E000A0E0309799F42115310509F44AC0281B70
:1016F000390B24303105D8F58A819B81611571053C
:1017000089F1FB0193838283FE0111C040815181E5
:101710000281138148175907E0F04817590799F4D7
:10172000109761F012960C93129713961C933296B1
:10173000CF01DF91CF911F910F9108950093E8039E
:101740001093E903F4CF2115310551F042175307E7
:1017500038F0A901DB019A01BD01DF01F801C1CF19
:10176000EF01F9CF9093E9038093E803CDCFFE0119
:10177000E20FF31F8193919322503109398328831B
:10178000D7CF2091E6033091E703232B41F420913A
:101790000201309103013093E7032093E603209187
:1017A0000001309101012115310541F42DB73EB7FB
:1017B0004091040150910501241B350BE091E60393
:1017C000F091E703E217F307A0F42E1B3F0B281755
:1017D000390778F0AC014E5F5F4F2417350748F0AA
:1017E0004E0F5F1F5093E7034093E603819391935D
:1017F0009FCFF0E0E0E09CCFCF93DF930097E9F03C
:10180000FC01329713821282A091E803B091E903A0
:10181000ED0130E020E01097A1F420813181820FAA
:10182000931F2091E6033091E7032817390709F049
:1018300061C0F093E703E093E603DF91CF91089551
:10184000EA01CE17DF07E8F54A815B819E01411569
:101850005105B1F7E901FB83EA8349915991C40F1E
:10186000D51FEC17FD0761F4808191810296840FEA
:10187000951FE90199838883828193819B838A8361
:10188000F0E0E0E012968D919C9113970097B9F5E6
:101890002D913C911197CD010296820F931F2091BB
:1018A000E6033091E7032817390739F6309751F5E9
:1018B0001092E9031092E803B093E703A093E603C4
:1018C000BCCFD383C28340815181840F951FC81739
:1018D000D90761F44E5F5F4F88819981480F591F86
:1018E000518340838A819B819383828321153105B3
:1018F00009F0B0CFF093E903E093E8039ECFFD0138
:10190000DC01C0CF13821282D7CFB0E0A0E0EBE8B9
:10191000FCE00C94ED0A8C01009751F4CB010E947D
:10192000600B8C01C801CDB7DEB7E0E10C94090B68
:10193000FC01E60FF71F9C0122503109E217F30763
:1019400008F49DC0D901CD91DC911197C617D70736
:1019500098F0C530D10530F3CE010497861797076C
:1019600008F3C61BD70B2297C193D1936D937C9339
:10197000CF010E94FC0BD6CF5B01AC1ABD0A4C0113
:101980008C0E9D1EA091E803B091E903512C412CCF
:10199000F12CE12C109731F58091E6039091E7034B
:1019A0008815990509F05CC04616570608F058C01E
:1019B0008091000190910101009741F48DB79EB78D
:1019C0004091040150910501841B950BE817F9071C
:1019D00008F055C0F093E703E093E603F901718343
:1019E0006083A0CF8D919C91119712966C90129765
:1019F00013967C901397A815B90559F56C0142E030
:101A0000C40ED11CCA14DB0420F1AC014A195B09D5
:101A1000DA011296159780F06282738251834083B7
:101A2000D9016D937C93E114F10471F0D701139601
:101A3000FC93EE93129776CF22968C0F9D1FF9019F
:101A400091838083F301EFCFF093E903E093E80300
:101A500069CF4816590608F42C017D01D3019ACFAD
:101A6000CB010E94600B7C01009749F0AE01B801E8
:101A70000E94420DC8010E94FC0B870153CF10E069
:101A800000E050CFFB01DC0102C001900D924150FB
:101A90005040D8F70895FB01DC0101900D92002021
:101AA000E1F7089510E0C2E6D0E004C0FE010E9414
:0E1AB0005A0B2196C336D107C9F7F894FFCF21
:101ABE000000EA0380000000000018027801A50172
:101ACE006502D601B401C801000000001F037801B1
:101ADE008602850220002D004C454654005249478F
:101AEE004854000A0A524544590A000A0909004D91
:101AFE004F544F525F315F5455524E5F315F5049D4
:101B0E004E0A004D4F544F525F315F5455524E5F47
:101B1E00325F50494E0A004D4F544F525F315F5362
:101B2E0050524545445F415F50494E0A0A004D4FA1
:101B3E00544F525F325F5455524E5F315F50494E93
:101B4E000A004D4F544F525F325F5455524E5F3222
:101B5E005F50494E0A004D4F544F525F325F535003
:101B6E00524545445F415F50494E0A000A09090932
:101B7E000909090909204C6F6F70203D3D3D3D3D1F
:041B8E003E200A00EB
:00000001FF
