:100000000C9463000C948B000C948B000C948B006C
:100010000C948B000C948B000C948B000C94960425
:100020000C948B000C948B000C948B000C944F035D
:100030000C948B000C948B000C948B000C948B0014
:100040000C945F020C948B000C941D030C94F7022B
:100050000C948B000C948B000C948B000C948B00F4
:100060000C948B000C948B000000000024002700EF
:100070002A0000000000250028002B0000000000DE
:1000800023002600290004040404040404040202DA
:100090000202020203030303030301020408102007
:1000A0004080010204081020010204081020000012
:1000B0000008000201000003040700000000000027
:1000C00000007A08620811241FBECFEFD8E0DEBF1F
:1000D000CDBF11E0A0E0B1E0E4E0FAE102C005909C
:1000E0000D92A235B107D9F723E0A2E5B1E001C036
:1000F0001D92A936B207E1F710E0C2E6D0E004C0D5
:100100002197FE010E94F30AC136D107C9F70E9468
:10011000F6060C94F50C0C940000CF92DF92EF924F
:10012000FF920F931F93CF93DF936C017A018B01A2
:10013000C0E0D0E0CE15DF0581F0D8016D918D01D2
:10014000D601ED91FC910190F081E02DC601099559
:10015000892B11F02196EECF7E01C701DF91CF915F
:100160001F910F91FF90EF90DF90CF900895FC01C9
:10017000538D448D252F30E0842F90E0821B930B0C
:10018000541710F0CF96089501970895FC01918DB2
:10019000828D981761F0828DDF01A80FB11D5D96E9
:1001A0008C91928D9F5F9F73928F90E008958FEF57
:1001B0009FEF0895FC01918D828D981731F0828D0B
:1001C000E80FF11D858D90E008958FEF9FEF089562
:1001D000FC01918D228D892F90E0805C9F4F821BC6
:1001E00091098F739927089582E691E00E94E800B3
:1001F00021E0892B09F420E0822F0895FC01848DF1
:10020000DF01A80FB11DA35ABF4F2C91848D90E040
:1002100001968F739927848FA689B7892C93A0891B
:10022000B1898C91837080648C93938D848D9813A5
:1002300006C00288F389E02D80818F7D8083089538
:10024000EF92FF920F931F93CF93DF93EC0181E026
:10025000888F9B8D8C8D981305C0E889F9898081E2
:1002600085FD26C0F62E0B8D10E00F5F1F4F0F731C
:100270001127E02E8C8DE8120CC00FB607FCFACFC8
:10028000E889F989808185FFF5CFCE010E94FE00C3
:10029000F1CF8B8DFE01E80FF11DE35AFF4FF08285
:1002A0009FB7F8940B8FEA89FB89808180620AC02E
:1002B0009FB7F894EE89FF896083E889F989808186
:1002C0008370806480839FBF81E090E0DF91CF9155
:1002D0001F910F91FF90EF900895CF93DF93EC0162
:1002E000888D8823C9F0EA89FB89808185FD05C056
:1002F000A889B9898C9186FD0FC00FB607FCF5CF90
:10030000808185FFF2CFA889B9898C9185FFEDCFD7
:10031000CE010E94FE00E7CFDF91CF91089580E0EB
:1003200090E0892B29F00E94F40081110C940000C8
:100330000895089580E090E00895CF93DF93EC0155
:1003400060E08E810E944F0661E08E810E944F0620
:1003500060E08E810E944F068BE891E00197F1F7F3
:10036000DF91CF910895CF93DF93EC0161E0888115
:100370000E947E0661E08A810E947E0661E08C8197
:100380000E947E0661E08A810E944F0660E08C81B7
:10039000DF91CF910C944F060F931F93CF93DF9370
:1003A0008C01EB0177FF07C061E0FC0182810E94B4
:1003B0004F0660E006C060E0FC0182810E944F06AB
:1003C00061E0F80184810E944F06D7FF03C0D195F8
:1003D000C195D109C233D1054CF460E0F8018281A6
:1003E0000E944F0660E0F80184815EC0F801CF3FB3
:1003F000D10549F044F0C08161E08C2F0E947E0657
:1004000061E08C2F51C00081118161E0802F0E943A
:100410007E06CF3FD10509F445C0F801FF27E2551C
:10042000FF4FE491E330F9F048F4E130B9F0E23005
:10043000A1F584B5806284BDC8BD3CC0E730E9F059
:10044000E83019F1E43049F58091800080628093B2
:100450008000D0938B00C0938A002CC084B5806844
:1004600084BDC7BD27C080918000806880938000D4
:10047000D0938900C09388001DC08091B00080682F
:100480008093B000C093B30015C08091B00080622B
:100490008093B000C093B4000DC0C038D10514F4EF
:1004A00060E001C061E0802FDF91CF911F910F913B
:1004B0000C944F06DF91CF911F910F9108951F92D9
:1004C0000F920FB60F9211242F933F938F939F9308
:1004D000AF93BF9380915A0190915B01A0915C0111
:1004E000B0915D013091590123E0230F2D3720F4A5
:1004F0000196A11DB11D05C026E8230F0296A11D7E
:10050000B11D2093590180935A0190935B01A093F0
:100510005C01B0935D0180915E0190915F01A091BB
:100520006001B09161010196A11DB11D80935E0132
:1005300090935F01A0936001B0936101BF91AF916F
:100540009F918F913F912F910F900FBE0F901F9011
:100550001895EF92FF920F931F93CF93DF93EC01C7
:10056000198218821B821A821D821C8261157105F4
:10057000B9F17B01FB0101900020E9F731978F0170
:10058000061B170BB8016F5F7F4F80E090E00E9461
:100590001A0C009759F0998388831B830A832C8156
:1005A0003D81232B81F4FC0110820DC0888199814B
:1005B000009711F00E94910B198218821D821C82F3
:1005C0001B821A820DC01D830C83B701888199811B
:1005D000DF91CF911F910F91FF90EF900C94EE0C53
:1005E000DF91CF911F910F91FF90EF9008951F928F
:1005F0000F920FB60F9211242F933F934F935F9357
:100600006F937F938F939F93AF93BF93EF93FF93DA
:1006100082E691E00E94FE00FF91EF91BF91AF91C1
:100620009F918F917F916F915F914F913F912F910A
:100630000F900FBE0F901F9018951F920F920FB63C
:100640000F9211242F938F939F93EF93FF93E09139
:100650007201F09173018081E0917801F09179014C
:1006600082FD12C0908180917B018F5F8F732091FA
:100670007C01821751F0E0917B01F0E0EE59FE4FD2
:10068000958F80937B0101C08081FF91EF919F91B5
:100690008F912F910F900FBE0F901F9018951F9262
:1006A0000F920FB60F9211242F933F934F935F93A6
:1006B0006F937F938F939F93AF93BF93EF93FF932A
:1006C0008091520187FF05C010928500109284002E
:1006D0001BC020915201022E000C330B809123028B
:1006E00090E02817390784F480915201082E000CFD
:1006F000990BFC01EE0FFF1F8E0F9F1FFC01E150B5
:10070000FE4F808186FD15C0809152018F5F8093DE
:10071000520120915201022E000C330B80912302D2
:1007200090E028173907C4F4809152018C3064F1AD
:1007300013C080915201082E000C990BFC01EE0FA2
:10074000FF1F8E0F9F1FFC01E150FE4F808160E074
:100750008F730E944F06D8CF8091840090918500BE
:10076000049680349C4918F480E49CE905C080918B
:10077000840090918500049690938900809388006E
:100780008FEF809352013BC020918400309185000F
:1007900080915201082E000C990BFC01EE0FFF1FF7
:1007A0008E0F9F1FFC01E150FE4F81819281820FCD
:1007B000931F909389008093880080915201082EA6
:1007C000000C990BFC01EE0FFF1F8E0F9F1FFC0109
:1007D000E150FE4F808186FF12C080915201082EA9
:1007E000000C990BFC01EE0FFF1F8E0F9F1FFC01E9
:1007F000E150FE4F808161E08F730E944F06FF91B0
:10080000EF91BF91AF919F918F917F916F915F9188
:100810004F913F912F910F900FBE0F901F90189501
:10082000CF92DF92EF92FF920F931F93CF93DF93BC
:100830006C017C0187E0E80EF11CC0E0D0E0062FDF
:1008400010E0B8010C2E02C0759567950A94E2F786
:100850006170F70181917F010E944F062196C4309B
:10086000D10579F7C601DF91CF911F910F91FF90CC
:10087000EF90DF90CF900C949D01CF92DF92EF929A
:10088000FF920F931F93CF93DF93EC01F62E642F0B
:100890008C810E944F068D818F3F19F060E00E948D
:1008A0004F068F850F2D10E084FF25C06E0187E075
:1008B000C80ED11CE12CF12CB8010E2C02C075958C
:1008C00067950A94E2F76170F60181916F010E94C9
:1008D0004F06FFEFEF1AFF0A88E0E816F10461F710
:1008E000CE01DF91CF911F910F91FF90EF90DF909C
:1008F000CF900C949D01B80184E0759567958A9519
:10090000E1F7CE010E9410046F2DCE01DF91CF914F
:100910001F910F91FF90EF90DF90CF900C941004F7
:1009200041E00E943D0481E090E008951F920F9203
:100930000FB60F9211242F933F934F935F936F93B2
:100940007F938F939F93AF93BF93EF93FF93809188
:1009500025020E9426062091290230912A022F5F4B
:100960003F4F30932A022093290290912802953616
:1009700018F096E090932402909124029430C9F1EB
:1009800028F4923069F09330D1F05EC0953009F4CC
:1009900051C0963009F058C091E09093F50251C0D3
:1009A000811152C02091290230912A02243631054A
:1009B00008F442C01092F502109228021CC0813047
:1009C00009F042C0E091280291E09E0F9093280226
:1009D000F0E02091290230912A02EE0FFF1FEC5D1A
:1009E000FD4F3087278310922A021092290294E04B
:1009F00029C0811117C0E091280291E09E0F9093C9
:100A00002802F0E02091290230912A02EE0FFF1F08
:100A1000EC5DFD4F3087278310922A021092290245
:100A200093E010C02091290230912A022536310529
:100A300058F007C0811108C010922A0210922902B2
:100A400003C095E090932402909127029923B9F076
:100A500081110AC080912602882321F0809126020C
:100A600061E009C02D9A0BC080912602882331F0E5
:100A70008091260260E00E944F0601C02D98FF91F0
:100A8000EF91BF91AF919F918F917F916F915F9106
:100A90004F913F912F910F900FBE0F901F9018957F
:100AA000833081F028F4813099F08230A1F00895EC
:100AB0008730A9F08830B9F08430D1F4809180007B
:100AC0008F7D03C0809180008F7780938000089590
:100AD00084B58F7702C084B58F7D84BD08958091E1
:100AE000B0008F7703C08091B0008F7D8093B000FD
:100AF00008950E94E00C009769F0FC01019000202D
:100B0000E9F73197AF01481B590BBC0182E691E030
:100B10000C948D0080E090E008958F929F92AF92A8
:100B2000BF92CF92DF92EF92FF920F931F93CF93DA
:100B3000DF93CDB7DEB7A1970FB6F894DEBF0FBE37
:100B4000CDBF6C01990FEE08FF08F7FE2BC06DE2D8
:100B500082E691E00E9420018C0122273327A9011F
:100B60002C193D094E095F0919A2CE0181967C011D
:100B70009AE0892E912CA12CB12CCA01B901A501B2
:100B800094010E94BB0A605DF70162937F01211509
:100B900031054105510589F7CF010E947B05800F82
:100BA000911F1DC0A701960119A28E010F5D1F4F55
:100BB0008AE0C82ED12CE12CF12CCA01B901A70181
:100BC00096010E94BB0A605DF80162938F012115B6
:100BD00031054105510589F7CF010E947B05A1969A
:100BE0000FB6F894DEBF0FBECDBFDF91CF911F913E
:100BF0000F91FF90EF90DF90CF90BF90AF909F90BC
:100C00008F9008950F931F93CF93DF938C01EB0187
:100C10008FE491E00E947B058FE491E00E947B05C8
:100C20008FE491E00E947B05C8010E948D058FE44E
:100C300091E00E947B058FE491E00E947B05CE014C
:100C4000DF91CF911F910F910C948D05CF93DF937E
:100C5000282F30E0F901E255FF4F8491F901E65663
:100C6000FF4FD491F901EA57FF4FC491CC2391F083
:100C700081110E945005EC2FF0E0EE0FFF1FE458A9
:100C8000FF4FA591B491EC91ED2381E090E021F428
:100C900080E002C080E090E0DF91CF9108951F9343
:100CA000CF93DF93282F30E0F901E255FF4F849175
:100CB000F901E656FF4FD491F901EA57FF4FC4916D
:100CC000CC23C1F0162F81110E945005EC2FF0E0CB
:100CD000EE0FFF1FEE58FF4FA591B4919FB7F89408
:100CE000111104C08C91D095D82302C0EC91DE2B59
:100CF000DC939FBFDF91CF911F910895CF93DF9336
:100D000090E0FC01E656FF4F2491FC01EA57FF4FAB
:100D10008491882361F190E0880F991FFC01E859C4
:100D2000FF4FC591D491FC01EE58FF4FA591B491AE
:100D3000611109C09FB7F894888120958223888328
:100D4000EC912E230BC0623061F49FB7F894888138
:100D5000322F309583238883EC912E2B2C939FBFC9
:100D600006C08FB7F894E8812E2B28838FBFDF91C0
:100D7000CF9108958E3008F08E50877080648093F4
:100D80007C0080917A00806480937A0080917A0060
:100D900086FDFCCF809178002091790090E0922B25
:100DA00008953FB7F89480915E0190915F01A09102
:100DB0006001B091610126B5A89B05C02F3F19F0D5
:100DC0000196A11DB11D3FBFBA2FA92F982F8827CB
:100DD000820F911DA11DB11DBC01CD0142E0660F26
:100DE000771F881F991F4A95D1F70895789484B585
:100DF000826084BD84B5816084BD85B5826085BD17
:100E000085B5816085BD80916E00816080936E00A4
:100E10001092810080918100826080938100809196
:100E20008100816080938100809180008160809347
:100E300080008091B10084608093B1008091B00007
:100E400081608093B00080917A00846080937A0002
:100E500080917A00826080937A0080917A0081602C
:100E600080937A0080917A00806880937A00109253
:100E7000C100E0917201F091730182E08083E09102
:100E80006E01F0916F011082E0917001F09171019B
:100E900080E1808310927A01E0917601F0917701F0
:100EA00086E08083E0917401F0917501808180611A
:100EB0008083E0917401F091750180818860808366
:100EC000E0917401F0917501808180688083E091E8
:100ED0007401F091750180818F7D808360E0809145
:100EE00062030E947E0661E0809162030E944F06C9
:100EF00087E593E00E94B30180E593E00E94B3018F
:100F000084E291E00E947B0588248A9493E0992EE4
:100F1000A12CB12C809160030E94BA0628E032E037
:100F2000DC010E94EC0AA50194010E94650A2F5F72
:100F30003109309356012093550180915E030E9440
:100F4000BA0628E032E0DC010E94EC0AA501940117
:100F50000E94650A2F5F3109309358012093570191
:100F6000809162030E942606919581959109909344
:100F7000540180935301A0915501B0915601C09145
:100F80005701D091580124E630E00E94EC0A2FEF7F
:100F900030E040E050E00E94650A69017A01890171
:100FA000B901CE010E940206C639D10564F40135AB
:100FB00011050CF07DC020EBC2162FEFD2060CF409
:100FC0007CC08E013AC0013511052CF480EBC816A7
:100FD0008FEFD80644F4CE018C199D098E010C0DBB
:100FE0001D1DEC0101C08E01CB3FD1051CF40B3F50
:100FF00011051CF12AEF30E0DE010E94EC0AC01757
:10100000D1070CF4E8019E01DD0F440B550B0E9443
:10101000650A29013A01E9012AEF30E0D8010E946E
:10102000EC0A9801041515050CF49201032E000C2E
:10103000440B550B0E94650A8901B801CE010E943C
:101040000206BE0182E193E00E94CC01B80189E171
:1010500093E00E94CC010E94D1066B017C0184E6E2
:10106000482E512C612C712C0E94D106DC01CB0141
:101070008C199D09AE09BF09883E9340A105B105B1
:1010800098F321E0421A51086108710888EEC80EF1
:1010900083E0D81EE11CF11C411451046104710469
:1010A00019F78CE291E00E947B050E948F0132CFFC
:1010B000CAE6DFEF06E910E0C0CFC6E9D0E00AE6F5
:1010C0001FEFBBCFCF93DF93C2E1D3E0898D9A8D21
:1010D0000E94910B8B899C890E94910BC1E3D3E004
:1010E000898D9A8D0E94910B8B899C89DF91CF917C
:1010F0000C94910B0F931F93CF93DF93CDB7DEB773
:101100006C970FB6F894DEBF0FBECDBF109265018D
:101110001092640188EE93E0A0E0B0E08093660155
:1011200090936701A0936801B09369018AE091E010
:10113000909363018093620185EC90E090936F013E
:1011400080936E0184EC90E0909371018093700124
:1011500080EC90E0909373018093720181EC90E0B9
:10116000909375018093740182EC90E090937701E5
:101170008093760186EC90E09093790180937801DA
:1011800010927B0110927C0110927D0110927E01E1
:1011900010925F0310925E0381E090E090936103F0
:1011A0008093600382E090E09093630380936203F6
:1011B00085E090E0909358038093570386E090E099
:1011C00090935A038093590387E090E090935C03D7
:1011D00080935B0389E090E09093510380935003E8
:1011E0008AE090E090935303809352038BE090E069
:1011F000909355038093540387E0E7E5F3E0DE0125
:10120000189601900D928A95E1F787E0E0E5F3E00A
:10121000DE01119601900D928A95E1F764E471E088
:1012200084E493E00E94A90269E471E08AE493E017
:101230000E94A90287E0FE013896A2E3B3E0019084
:101240000D928A95E1F787E0FE013196A9E3B3E0BC
:1012500001900D928A95E1F787E0E7E5F3E0DE0182
:10126000569601900D928A95E1F787E0E0E5F3E06C
:10127000DE011F9601900D928A95E1F764E471E01A
:1012800085E293E00E94A90269E471E08BE293E0B9
:101290000E94A90287E0FE017696A2E1B3E00190E8
:1012A0000D928A95E1F787E0FE013F96A9E1B3E050
:1012B00001900D928A95E1F781E0809324031092CA
:1012C000FD021092FC022CE131E03093FB022093EE
:1012D000FA029CE09093FE029FEF9093FF029BE046
:1012E0009093000394E09093010395E090930203A0
:1012F00096E09093030397E0909304031092050304
:10130000109206031092070310920803109209032B
:1013100080930D0310920E0380E480930F0380E10D
:101320008093100380E58093110361E08CE00E94BC
:101330007E068091FF028F3F19F061E00E947E06D9
:1013400061E0809100030E947E060AEF12E098019E
:101350002A5F32408091090384FD03C084E090E05D
:1013600002C088E090E00F5F1F4F2817390734F460
:1013700061E0F80186810E947E06E9CF8BE39DE063
:101380000197F1F760E08091FE020E944F0660E055
:10139000809100030E944F068091FF028F3F19F059
:1013A00060E00E944F066091090364FD21C063E084
:1013B0008AEF92E00E9410040BE416E4C801019742
:1013C000F1F763E08AEF92E00E941004C8010197F0
:1013D000F1F763E08AEF92E00E94100483E592E067
:1013E0000197F1F762E08AEF92E00E9410041EC0BC
:1013F000606240E08AEF92E00E943D048BE496E454
:101400000197F1F760910903606240E08AEF92E092
:101410000E943D0483E592E00197F1F76091090392
:10142000606240E08AEF92E00E943D04609109030F
:10143000606240E08AEF92E00E943D0484E0809385
:101440000A0340E06CE08AEF92E00E943D0440E035
:1014500061E08AEF92E00E943D048BE39FE10197F7
:10146000F1F782E080930B0340E066E08AEF92E0C0
:101470000E943D0483E08093250210922702809110
:1014800023028C30A0F491E0980F90932302809374
:10149000F60290E0FC01EE0FFF1F8E0F9F1FFC0174
:1014A000E150FE4F88EB9BE09283818303C08FEF76
:1014B0008093F6026C960FB6F894DEBF0FBECDBFD8
:1014C000DF91CF911F910F910895052E97FB1EF488
:1014D00000940E947C0A57FD07D00E94BB0A07FCBB
:1014E00003D04EF40C947C0A50954095309521958C
:1014F0003F4F4F4F5F4F0895909580957095619540
:101500007F4F8F4F9F4F08952F923F924F925F9240
:101510006F927F928F929F92AF92BF92CF92DF9203
:10152000EF92FF920F931F93CF93DF93CDB7DEB768
:10153000CA1BDB0B0FB6F894DEBF0FBECDBF0994FC
:101540002A88398848885F846E847D848C849B8453
:10155000AA84B984C884DF80EE80FD800C811B8161
:10156000AA81B981CE0FD11D0FB6F894DEBF0FBE90
:10157000CDBFED010895A1E21A2EAA1BBB1BFD01F0
:101580000DC0AA1FBB1FEE1FFF1FA217B307E40762
:10159000F50720F0A21BB30BE40BF50B661F771FBA
:1015A000881F991F1A9469F760957095809590959A
:1015B0009B01AC01BD01CF010895A29FB001B39F73
:1015C000C001A39F700D811D1124911DB29F700D4C
:1015D000811D1124911D08950E94DD0AB7FF089511
:1015E000821B930B0895EE0FFF1F0590F491E02DE1
:1015F00009940F931F93CF93DF938230910510F4DA
:1016000082E090E0E0916703F091680320E030E031
:10161000A0E0B0E0309719F140815181028113813F
:1016200048175907C8F08417950769F4109731F0E7
:1016300012960C93129713961C9327C0009367037E
:101640001093680322C02115310519F04217530782
:1016500018F49A01BD01EF01DF01F801DBCF21157C
:101660003105F9F0281B390B2430310580F48A81CB
:101670009B816115710521F0FB019383828304C076
:101680009093680380936703FE01329644C0FE0185
:10169000E20FF31F819391932250310939832883FC
:1016A0003AC02091650330916603232B41F42091C9
:1016B000020130910301309366032093650320916A
:1016C0000001309101012115310541F42DB73EB7DC
:1016D0004091040150910501241B350BE0916503F5
:1016E000F0916603E217F307A0F42E1B3F0B2817B7
:1016F000390778F0AC014E5F5F4F2417350748F08B
:101700004E0F5F1F5093660340936503819391933F
:1017100002C0E0E0F0E0CF01DF91CF911F910F9187
:101720000895CF93DF93009709F481C0FC013297AD
:1017300013821282A0916703B0916803109781F41D
:1017400020813181820F931F2091650330916603C0
:101750002817390751F5F0936603E093650367C0D6
:10176000ED0120E030E0CE17DF0740F44A815B81D5
:101770009E0141155105F1F0EA01F5CFD383C283F3
:1017800040815181840F951FC817D90759F488816A
:101790009981840F951F0296918380838A819B8112
:1017A000938382832115310529F4F0936803E09334
:1017B00067033DC0E901FB83EA8349915991C40F56
:1017C000D51FEC17FD0761F480819181840F951F6F
:1017D0000296E90199838883828193819B838A831E
:1017E000E0E0F0E012968D919C911397009719F02C
:1017F000FD01DC01F7CF8D919C9111979D012E5F2A
:101800003F4F820F931F2091650330916603281785
:10181000390769F4309729F410926803109267032E
:1018200002C013821282B0936603A0936503DF9116
:10183000CF910895A0E0B0E0E0E2FCE00C94880ACB
:10184000EC01009721F4CB010E94F90AB4C0FC011D
:10185000E60FF71F9C0122503109E217F30708F445
:10186000A8C0D9010D911C91119706171707B0F068
:101870000530110508F49BC0C80104978617970727
:1018800008F495C002501109061B170B0193119320
:101890006D937C93CF010E94910B89C05B01A01ACC
:1018A000B10A4C01800E911EA0916703B0916803AC
:1018B000612C712CE12CF12C109709F446C08D910C
:1018C0009C911197A815B905B1F56C0142E0C40EC1
:1018D000D11CCA14DB0478F14C018A189B086401FE
:1018E00042E0C40ED11C1296BC9012971396AC9194
:1018F000B5E0CB16D10440F0B282A38391828082FE
:10190000D9016D937C9309C00E5F1F4F800F911F0B
:10191000F90191838083EB2DFA2FE114F10431F06A
:10192000D7011396FC93EE93129741C0F09368038E
:10193000E09367033CC06816790608F43C017D011A
:1019400012960D90BC91A02DB7CF80916503909118
:10195000660388169906E1F466167706C8F4809146
:10196000000190910101009741F48DB79EB740911D
:10197000040150910501841B950BE817F907C8F481
:10198000F0936603E0936503F901718360830FC0F0
:10199000CB010E94F90A7C01009759F0A801BE0111
:1019A0000E94E50CCE010E94910BC70104C0CE013C
:1019B00002C080E090E0CDB7DEB7EEE00C94A40A60
:1019C00081E090E0F8940C94F50CFB01DC0102C07E
:1019D00001900D9241505040D8F70895FB01DC0171
:1019E00001900D920020E1F7089510E0C2E6D0E0EA
:1019F00004C0FE010E94F30A2196C336D107C9F73D
:041A0000F894FFCF88
:101A04000000690380000000000020018D00B70081
:101A14006D01E800C600DA000000000090048D00AB
:101A24009A0199010A0A524544590A000A09090906
:101A34000909090909204C6F6F70203D3D3D3D3D6A
:101A44003E200A004C454654005249474854003B46
:021A5400090087
:00000001FF
