:100000000C9463000C948B000C948B000C948B006C
:100010000C948B000C948B000C948B000C949C041F
:100020000C948B000C948B000C948B000C94E003CC
:100030000C948B000C948B000C948B000C948B0014
:100040000C943E030C948B000C94AE030C94880328
:100050000C948B000C948B000C948B000C948B00F4
:100060000C948B000C948B000000000023002600F1
:10007000290000000000240027002A0000000000E2
:10008000250028002B0004040404040404040202D4
:100090000202020203030303030301020408102007
:1000A0004080010204081020010204081020000012
:1000B0000008000201000003040700000000000027
:1000C0000000BE05230911241FBECFEFD8E0DEBF1C
:1000D000CDBF11E0A0E0B1E0E0E7F7E102C005909C
:1000E0000D92A035B107D9F723E0A0E5B1E001C03A
:1000F0001D92AD35B207E1F710E0C2E6D0E004C0D2
:100100002197FE010E94B309C136D107C9F70E94A9
:10011000D3070C94AB0B0C940000833081F028F4CF
:10012000813099F08230A9F008958730A9F08830A5
:10013000C9F08430B1F4809180008F7D03C080913C
:1001400080008F7780938000089584B58F7784BD79
:10015000089584B58F7DFBCF8091B0008F77809319
:10016000B00008958091B0008F7DF9CF1F93CF9399
:10017000DF93282F30E0F901E255FF4F8491F90118
:10018000E656FF4FD491F901EA57FF4FC491CC23B3
:10019000A9F0162F81110E948D00EC2FF0E0EE0FD8
:1001A000FF1FE458FF4FA591B4918FB7F894EC91DD
:1001B000111108C0D095DE23DC938FBFDF91CF9162
:1001C0001F910895DE2BF8CFCF93DF9390E0FC01D1
:1001D000E656FF4F24918A579F4FFC018491882354
:1001E000D1F090E0880F991FFC01EE58FF4FA591C8
:1001F000B491FC01E458FF4FC591D49161110EC038
:100200009FB7F8948C91E22FE0958E238C932881F0
:10021000E223E8839FBFDF91CF9108958FB7F894D1
:10022000EC91E22BEC938FBFF6CF3FB7F89480911F
:10023000560190915701A0915801B091590126B5EE
:10024000A89B05C02F3F19F00196A11DB11D3FBF0E
:10025000BA2FA92F982F8827BC01CD01620F711DDD
:10026000811D911D42E0660F771F881F991F4A95D7
:10027000D1F70895AF92BF92CF92DF92EF92FF92A3
:100280000F931F93CF93DF936C017B018B01040FBE
:10029000151FEB015E01AE18BF08C017D10759F05A
:1002A0006991D601ED91FC910190F081E02DC6019C
:1002B0000995892B79F7C501DF91CF911F910F9196
:1002C000FF90EF90DF90CF90BF90AF900895FC012A
:1002D000538D448D252F30E0842F90E0821B930BAB
:1002E000541710F0CF96089501970895FC01918D51
:1002F000828D981761F0A28DAE0FBF2FB11D5D9654
:100300008C91928D9F5F9F73928F90E008958FEFF5
:100310009FEF0895FC01918D828D981731F0828DA9
:10032000E80FF11D858D90E008958FEF9FEF089500
:10033000FC01918D228D892F90E0805C9F4F821B64
:1003400091098F73992708958AE591E00E94980199
:1003500021E0892B09F420E0822F089580E090E0CD
:10036000892B29F00E94A40181110C9400000895AA
:10037000FC01A48DA80FB92FB11DA35ABF4F2C911A
:10038000848D90E001968F739927848FA689B78911
:100390002C93A089B1898C91837080648C93938D08
:1003A000848D981306C00288F389E02D80818F7DAB
:1003B00080830895EF92FF920F931F93CF93DF9363
:1003C000EC0181E0888F9B8D8C8D98131AC0E88991
:1003D000F989808185FF15C09FB7F894EE89FF8960
:1003E0006083E889F98980818370806480839FBFFE
:1003F00081E090E0DF91CF911F910F91FF90EF90FE
:100400000895F62E0B8D10E00F5F1F4F0F7311270D
:10041000E02E8C8D8E110CC00FB607FCFACFE88948
:10042000F989808185FFF5CFCE010E94B801F1CF17
:10043000EB8DEC0FFD2FF11DE35AFF4FF0829FB7BC
:10044000F8940B8FEA89FB8980818062CFCFCF93AC
:10045000DF93EC01888D8823B9F0AA89BB89E889EC
:10046000F9898C9185FD03C0808186FD0DC00FB692
:1004700007FCF7CF8C9185FFF2CF808185FFEDCF10
:10048000CE010E94B801E9CFDF91CF910895089580
:1004900090E080E00895CF93DF93EC0160E08E81DF
:1004A0000E94B60061E08E810E94B60060E08E81FD
:1004B0000E94B6008BE891E00197F1F7DF91CF91B0
:1004C0000895CF92DF92EF92FF920F931F93CF93F5
:1004D000DF936C017C0187E0E80EF11CD0E0C0E006
:1004E000062F10E0B8010C2E02C0759567950A948E
:1004F000E2F76170F70181917F010E94B6002196B9
:10050000C430D10579F7C601DF91CF911F910F91CA
:10051000FF90EF90DF90CF900C944B02CF92DF9240
:10052000EF92FF920F931F93CF93DF93EC01F62E80
:10053000642F8C810E94B6008D818F3F19F060E09E
:100540000E94B6000F2D10E08F8584FF25C06E013C
:1005500087E0C80ED11CF12CE12CB8010E2C02C092
:10056000759567950A94E2F76170F60181916F01C4
:100570000E94B600FFEFEF1AFF0A88E0E816F104C8
:1005800061F7CE01DF91CF911F910F91FF90EF9016
:10059000DF90CF900C944B02B80184E0759567957D
:1005A0008A95E1F7CE010E9461026F2DCE01DF91A5
:1005B000CF911F910F91FF90EF90DF90CF900C940F
:1005C000610241E00E948E0281E090E00895FC010A
:1005D00001900020E9F73197AF01481B590BBC018E
:1005E0008AE591E00C943A01EF92FF920F931F93EA
:1005F000CF93DF93EC017B01FB0101900020E9F731
:1006000031978F01061B170B88819981009729F07C
:100610002A813B812017310788F4B8016F5F7F4F33
:100620000E94DE0A0097B9F0998388831B830A83AE
:100630002C813D81232B11F4FC0110821D830C833E
:10064000B70188819981DF91CF911F910F91FF9020
:10065000EF900C94A40B88819981009711F00E946F
:10066000550A198218821D821C821B821A82DF9110
:10067000CF911F910F91FF90EF9008951F920F92CD
:100680000FB60F9211242F933F938F939F93AF93A5
:10069000BF938091520190915301A0915401B09168
:1006A00055013091510123E0230F2D3758F5019664
:1006B000A11DB11D209351018093520190935301CC
:1006C000A0935401B0935501809156019091570128
:1006D000A0915801B09159010196A11DB11D8093BF
:1006E000560190935701A0935801B0935901BF91BF
:1006F000AF919F918F913F912F910F900FBE0F90CF
:100700001F90189526E8230F0296A11DB11DD2CF88
:100710001F920F920FB60F9211242F933F934F9376
:100720005F936F937F938F939F93AF93BF93EF9359
:10073000FF938AE591E00E94B801FF91EF91BF918C
:10074000AF919F918F917F916F915F914F913F9169
:100750002F910F900FBE0F901F9018951F920F9220
:100760000FB60F9211242F938F939F93EF93FF93C4
:10077000E0916A01F0916B018081E0917001F0914C
:10078000710182FD1BC09081809173018F5F8F7317
:1007900020917401821741F0E0917301F0E0E65A74
:1007A000FE4F958F80937301FF91EF919F918F91F1
:1007B0002F910F900FBE0F901F9018958081F4CF4E
:1007C0001F920F920FB60F9211242F933F934F93C6
:1007D0005F936F937F938F939F93AF93BF93CF93C9
:1007E000DF93EF93FF9380915001C0911B02D0E003
:1007F00087FF24C0109285001092840080915001E0
:100800008F5F8093500180915001082E000C990B4E
:100810008C179D0724F4809150018C30C4F1809195
:10082000840090918500049680349C4908F47AC035
:100830008091840090918500049676C0809150014B
:10084000082E000C990B8C179D07C4F6E0915001FF
:100850008E2FEE0F990BFC01EE0FFF1FE80FF91F13
:10086000E950FE4F808186FFC9CFE09150018E2F65
:10087000EE0F990BFC01EE0FFF1FE80FF91FE95077
:10088000FE4F808160E08F730E94B600B7CF209149
:10089000840030918500E09150018E2FEE0F990B6E
:1008A000FC01EE0FFF1FE80FF91FE950FE4F818199
:1008B0009281820F931F9093890080938800E0912A
:1008C00050018E2FEE0F990BFC01EE0FFF1FE80F6A
:1008D000F91FE950FE4F808186FF11C0E091500161
:1008E0008E2FEE0F990BFC01EE0FFF1FE80FF91F83
:1008F000E950FE4F808161E08F730E94B600FF9146
:10090000EF91DF91CF91BF91AF919F918F917F91A7
:100910006F915F914F913F912F910F900FBE0F906C
:100920001F90189580E49CE990938900809388003B
:100930008FEF80935001E3CF1F920F920FB60F926B
:1009400011242F933F934F935F936F937F938F93D4
:100950009F93AF93BF93CF93DF93EF93FF93209138
:100960001D0230E0F901E255FF4F8491F901E6568E
:10097000FF4FD491F901EA57FF4FC491CC2379F08E
:1009800081110E948D00EC2FF0E0EE0FFF1FE8595F
:10099000FF4FA591B491EC91ED2381E009F480E043
:1009A00020912102309122022F5F3F4F309322028B
:1009B0002093210290912002953618F096E09093B2
:1009C0001C0290911C02943009F466C0B8F4923075
:1009D000F1F0933009F444C090911F02992309F477
:1009E0006BC081117CC080911E02882309F463C012
:1009F00080911E0261E00E94B6005EC0953009F44D
:100A000057C0963049F791E09093ED024FC08111A5
:100A1000E3CF20912102309122022436310528F4BF
:100A20001092220210922102D7CF1092ED02109262
:100A30002002E091200291E09E0F90932002F0E0CE
:100A40002091210230912202EE0FFF1FE45EFD4F44
:100A500030872783109222021092210293E019C05E
:100A6000813009F0B9CFE091200291E09E0F909380
:100A70002002F0E02091210230912202EE0FFF1FB0
:100A8000E45EFD4F308727831092220210922102EC
:100A900094E090931C02A0CF882359F22091210268
:100AA000309122022536310508F496CF95E0F1CF3A
:100AB000811192CFB5CF2D9AFF91EF91DF91CF9118
:100AC000BF91AF919F918F917F916F915F914F9166
:100AD0003F912F910F900FBE0F901F90189580910E
:100AE0001E02882321F080911E0260E084CF2D98A1
:100AF000E3CFCF92DF92EF92FF920F931F93E82FF5
:100B0000F92F05C0015011092109310961F19081C6
:100B100096239417B9F305C0015011092109310931
:100B200011F1908196239413F7CFC12CD12CE12C95
:100B3000F12C0AC08FEFC81AD80AE80AF80A0C1577
:100B40001D052E053F0579F080818623841791F3DA
:100B50006C2D7D2D8E2D9F2D1F910F91FF90EF906D
:100B6000DF90CF90089560E070E080E090E01F910A
:100B70000F91FF90EF90DF90CF9008950F931F9308
:100B8000CF93DF93CDB7DEB76C970FB6F894DEBF87
:100B90000FBECDBF10925D0110925C0188EE93E014
:100BA000A0E0B0E080935E0190935F01A0936001AC
:100BB000B09361018AE091E090935B0180935A01C8
:100BC00085EC90E0909367018093660184EC90E05F
:100BD000909369018093680180EC90E090936B01A1
:100BE00080936A0181EC90E090936D0180936C0199
:100BF00082EC90E090936F0180936E0186EC90E020
:100C0000909371018093700110927301109274019E
:100C100010927501109276018CE090E0909356034B
:100C2000809355038BE090E0909358038093570393
:100C300025E030E030934F0320934E0326E030E070
:100C4000309351032093500327E030E03093530357
:100C50002093520329E030E0309348032093470368
:100C60002AE030E030934A032093490390934C03E9
:100C700080934B0387E0EEE4F3E0DE0118960190E9
:100C80000D928A95E1F787E0E7E4F3E0DE01119643
:100C900001900D928A95E1F710923C0310923B036C
:100CA00010923E0310923D031092400310923F03B6
:100CB00064E271E08BE393E00E94F402109242033D
:100CC0001092410310924403109243031092460382
:100CD0001092450369E271E081E493E00E94F4021E
:100CE00087E0FE013896A9E2B3E001900D928A9563
:100CF000E1F787E0FE013196A0E3B3E001900D92A9
:100D00008A95E1F787E0EEE4F3E0DE015696019084
:100D10000D928A95E1F787E0E7E4F3E0DE011F96A4
:100D200001900D928A95E1F710921D0310921C0319
:100D300010921F0310921E031092210310922003A1
:100D400064E271E08CE193E00E94F40210922303CC
:100D5000109222031092250310922403109227036D
:100D60001092260369E271E082E293E00E94F402AD
:100D700087E0FE017696A9E0B3E001900D928A9596
:100D8000E1F787E0FE013F96A0E1B3E001900D920C
:100D90008A95E1F781E080931B031092F402109290
:100DA000F3022CE131E03093F2022093F1029CE057
:100DB0009093F5029FEF9093F6029BE09093F702D9
:100DC00094E09093F80295E09093F90296E0909366
:100DD000FA0297E09093FB021092FC021092FD023F
:100DE0001092FE021092FF021092000380930403FF
:100DF0001092050380E48093060380E1809307034B
:100E000080E58093080361E08CE00E94E40080911B
:100E1000F6028F3F19F061E00E94E40061E08091EA
:100E2000F7020E94E40001EF12E09801215F3240D6
:100E30008091000384FD0DC084E090E00F5F1F4FA0
:100E4000281739074CF461E0F80186810E94E4001C
:100E5000ECCF88E090E0F2CF8BE39DE00197F1F7D3
:100E600060E08091F5020E94B60060E08091F70298
:100E70000E94B6008091F6028F3F19F060E00E9458
:100E8000B6006091000364FD6BC063E081EF92E007
:100E90000E9461020BE416E4C8010197F1F763E0D8
:100EA00081EF92E00E946102C8010197F1F763E0CF
:100EB00081EF92E00E94610283E592E00197F1F7F1
:100EC00062E081EF92E00E94610260910003606243
:100ED00040E081EF92E00E948E0284E08093010363
:100EE00040E06CE081EF92E00E948E0240E061E021
:100EF00081EF92E00E948E028BE39FE10197F1F770
:100F000082E08093020340E066E081EF92E00E947D
:100F10008E0283E080931D0210921F0280911B02BB
:100F20008C3008F03CC091E0980F90931B028093A6
:100F3000EE0290E0FC01EE0FFF1FE80FF91FE950F1
:100F4000FE4F88EB9BE0928381836C960FB6F894FA
:100F5000DEBF0FBECDBFDF91CF911F910F910895DE
:100F6000606240E081EF92E00E948E028BE496E4A2
:100F70000197F1F760910003606240E081EF92E039
:100F80000E948E0283E592E00197F1F760910003E1
:100F9000606240E081EF92E00E948E0296CF8FEF78
:100FA0008093EE02D2CFCF93DF93CDB7DEB7A19778
:100FB0000FB6F894DEBF0FBECDBF789484B58260C3
:100FC00084BD84B5816084BD85B5826085BD85B5ED
:100FD000816085BD80916E00816080936E0010926B
:100FE00081008091810082608093810080918100E6
:100FF0008160809381008091800081608093800077
:101000008091B10084608093B1008091B0008160D4
:101010008093B00080917A00846080937A00809100
:101020007A00826080937A0080917A008160809358
:101030007A0080917A00806880937A001092C100D3
:10104000E0916A01F0916B0182E08083E09166019A
:10105000F09167011082E0916801F091690180E1EF
:10106000808310927201E0916E01F0916F0186E031
:101070008083E0916C01F0916D01808180618083BB
:10108000E0916C01F0916D01808188608083E09136
:101090006C01F0916D01808180688083E0916C012A
:1010A000F0916D0180818F7D808361E08091550397
:1010B0000E94E40060E0809157030E94E4008FE208
:1010C00091E00E94E7022AE0422E512C612C712C03
:1010D00030E0232E30E0332E60E0809155030E94F3
:1010E000B60083E090E00197F1F761E0809155034D
:1010F0000E94B60083E290E00197F1F760E08091F2
:1011000055030E94B6008091570390915803992788
:10111000FC01E656FF4F6491FC01EA57FF4FE49152
:10112000F0E0EE0FFF1FE859FF4F8591949100E426
:1011300012E42FE030E0462F0E9479056115710519
:101140008105910529F06F5F7F4F8F4F9F4F9F70F3
:101150002AE330E040E050E00E943B096901330F90
:10116000EE08FF08F7FE59C06DE28AE591E00E94A3
:10117000DA0122273327A9012C193D094E095F09FD
:1011800019A2CE0181967C01CA01B901A301920185
:101190000E949109605DF70162937F01211531057D
:1011A0004105510589F7E114F10419F0C7010E94C6
:1011B000E7020E9415014B015C0182E3C82ED12C8D
:1011C000E12CF12C0E941501681979098A099B0903
:1011D000683E734081059105A8F3F1E0CF1AD1086C
:1011E000E108F10828EE820E23E0921EA11CB11C3A
:1011F000C114D104E104F10429F787E391E00E94CE
:10120000E7022114310409F467CF0E94A401882366
:1012100009F462CF0E9400005FCFA701960119A2D6
:10122000CE0181967C01CA01B901A30192010E94FD
:101230009109605DF70162937F0121153105410538
:10124000510589F7B0CFCF93DF93C9E0D3E0898D03
:101250009A8D0E94550A8B899C890E94550AC8E282
:10126000D3E0898D9A8D0E94550A8B899C89DF91E4
:10127000CF910C94550A052E97FB1EF400940E9402
:10128000520957FD07D00E94910907FC03D04EF484
:101290000C94520950954095309521953F4F4F4FF2
:1012A0005F4F089590958095709561957F4F8F4F12
:1012B0009F4F08952F923F924F925F926F927F922D
:1012C0008F929F92AF92BF92CF92DF92EF92FF9256
:1012D0000F931F93CF93DF93CDB7DEB7CA1BDB0B02
:1012E0000FB6F894DEBF0FBECDBF09942A883988A7
:1012F00048885F846E847D848C849B84AA84B984AE
:10130000C884DF80EE80FD800C811B81AA81B981B9
:10131000CE0FD11D0FB6F894DEBF0FBECDBFED01CD
:101320000895A1E21A2EAA1BBB1BFD010DC0AA1F26
:10133000BB1FEE1FFF1FA217B307E407F50720F03E
:10134000A21BB30BE40BF50B661F771F881F991FB9
:101350001A9469F760957095809590959B01AC0102
:10136000BD01CF010895EE0FFF1F0590F491E02D10
:1013700009940F931F93CF93DF938230910510F45C
:1013800082E090E0E0915B03F0915C0330E020E0CC
:10139000B0E0A0E0309799F42115310509F44AC076
:1013A000281B390B24303105D8F58A819B816115C2
:1013B000710589F1FB0193838283FE0111C0408195
:1013C00051810281138148175907E0F048175907E6
:1013D00099F4109761F012960C93129713961C9340
:1013E0003296CF01DF91CF911F910F910895009315
:1013F0005B0310935C03F4CF2115310551F04217C4
:10140000530738F0A901DB019A01BD01DF01F801A2
:10141000C1CFEF01F9CF90935C0380935B03CDCFF5
:10142000FE01E20FF31F819391932250310939831A
:101430002883D7CF2091590330915A03232B41F4AD
:10144000209102013091030130935A0320935903F4
:1014500020910001309101012115310541F42DB792
:101460003EB74091040150910501241B350BE091DA
:101470005903F0915A03E217F307A0F42E1B3F0B18
:101480002817390778F0AC014E5F5F4F24173507F6
:1014900048F04E0F5F1F50935A03409359038193B6
:1014A00091939FCFF0E0E0E09CCFCF93DF93009744
:1014B000E9F0FC01329713821282A0915B03B09194
:1014C0005C03ED0130E020E01097A1F42081318130
:1014D000820F931F2091590330915A03281739071F
:1014E00009F061C0F0935A03E0935903DF91CF9163
:1014F0000895EA01CE17DF07E8F54A815B819E0176
:1015000041155105B1F7E901FB83EA8349915991EE
:10151000C40FD51FEC17FD0761F4808191810296FD
:10152000840F951FE90199838883828193819B832E
:101530008A83F0E0E0E012968D919C9113970097DA
:10154000B9F52D913C911197CD010296820F931F11
:101550002091590330915A032817390739F63097EB
:1015600051F510925C0310925B03B0935A03A09361
:101570005903BCCFD383C28340815181840F951F0F
:10158000C817D90761F44E5F5F4F88819981480F72
:10159000591F518340838A819B81938382832115C4
:1015A000310509F0B0CFF0935C03E0935B039ECF6D
:1015B000FD01DC01C0CF13821282D7CFB0E0A0E0E2
:1015C000E4EEFAE00C945C098C01009751F4CB0135
:1015D0000E94B9098C01C801CDB7DEB7E0E10C94D7
:1015E0007809FC01E60FF71F9C0122503109E21730
:1015F000F30708F49DC0D901CD91DC911197C6176E
:10160000D70798F0C530D10530F3CE01049786177F
:10161000970708F3C61BD70B2297C193D1936D93FD
:101620007C93CF010E94550AD6CF5B01AC1ABD0A4C
:101630004C018C0E9D1EA0915B03B0915C03512C5C
:10164000412CF12CE12C109731F5809159039091A8
:101650005A038815990509F05CC04616570608F02C
:1016600058C08091000190910101009741F48DB71D
:101670009EB74091040150910501841B950BE8171A
:10168000F90708F055C0F0935A03E0935903F901A4
:1016900071836083A0CF8D919C91119712966C906D
:1016A000129713967C901397A815B90559F56C01FC
:1016B00042E0C40ED11CCA14DB0420F1AC014A196B
:1016C0005B09DA011296159780F06282738251836A
:1016D0004083D9016D937C93E114F10471F0D7013B
:1016E0001396FC93EE93129776CF22968C0F9D1F44
:1016F000F90191838083F301EFCFF0935C03E093D2
:101700005B0369CF4816590608F42C017D01D3010B
:101710009ACFCB010E94B9097C01009749F0AE0134
:10172000B8010E949B0BC8010E94550A870153CF44
:1017300010E000E050CFFB01DC0102C001900D92EF
:1017400041505040D8F70895FB01DC0101900D9203
:101750000020E1F7089510E0C2E6D0E004C0FE01E9
:101760000E94B3092196C336D107C9F7F894FFCF79
:1017700000005D03800000000000DA013A0167010B
:101780002702980176018A0100000000E1023A0177
:10179000480247024C454654005249474854000A03
:1017A0000A524544590A000A09090909090909099F
:1017B000204C6F6F70203D3D3D3D3D3E200A0000B6
:00000001FF
