:100000000C9462000C948A000C948A000C948A0070
:100010000C948A000C948A000C948A000C94840539
:100020000C948A000C948A000C948A000C94C304EB
:100030000C948A000C948A000C948A000C948A0018
:100040000C9421040C948A000C9491040C946B047D
:100050000C948A000C948A000C948A000C948A00F8
:100060000C948A000C948A000000000023002600F3
:10007000290000000000240027002A0000000000E2
:10008000250028002B0004040404040404040202D4
:100090000202020203030303030301020408102007
:1000A0004080010204081020010204081020000012
:1000B0000008000201000003040700000000000027
:1000C00000005F0611241FBECFEFD8E0DEBFCDBF1A
:1000D00011E0A0E0B1E0E6E0F2E102C005900D928F
:1000E000A033B107D9F722E0A0E3B1E001C01D922F
:1000F000AB3FB207E1F710E0C2E6D0E004C02197C1
:10010000FE010E94F608C136D107C9F70E94D30745
:100110000C9401090C940000833081F028F48130A4
:1001200099F08230A1F008958730A9F08830B9F0B5
:100130008430D1F4809180008F7D03C08091800055
:100140008F7780938000089584B58F7702C084B53F
:100150008F7D84BD08958091B0008F7703C080911A
:10016000B0008F7D8093B00008951F93CF93DF93ED
:10017000282F30E0F901E255FF4F8491F901E6564E
:10018000FF4FD491F901EA57FF4FC491CC23C1F03E
:10019000162F81110E948C00EC2FF0E0EE0FFF1F54
:1001A000E458FF4FA591B4919FB7F894111104C082
:1001B0008C91D095D82302C0EC91DE2BDC939FBFAD
:1001C000DF91CF911F910895CF93DF9390E0FC01D1
:1001D000E656FF4F2491FC01EA57FF4F8491882394
:1001E00061F190E0880F991FFC01EE58FF4FC59117
:1001F000D491FC01E458FF4FA591B491611109C05D
:100200009FB7F8948881209582238883EC912E23D0
:100210000BC0623061F49FB7F8948881322F30951B
:1002200083238883EC912E2B2C939FBF06C08FB71E
:10023000F894E8812E2B28838FBFDF91CF9108950A
:100240008E3008F08E508770806480937C0080919F
:100250007A00806480937A0080917A0086FDFCCFDA
:10026000809178002091790090E0922B08953FB71B
:10027000F8948091360190913701A0913801B091A6
:10028000390126B5A89B05C02F3F19F00196A11D85
:10029000B11D3FBFBA2FA92F982F8827820F911D1C
:1002A000A11DB11DBC01CD0142E0660F771F881F63
:1002B000991F4A95D1F70895CF92DF92EF92FF925E
:1002C0000F931F93CF93DF936C017A018B01C0E0F2
:1002D000D0E0CE15DF0581F0D8016D918D01D601FA
:1002E000ED91FC910190F081E02DC6010995892BDB
:1002F00011F02196EECF7E01C701DF91CF911F91C2
:100300000F91FF90EF90DF90CF900895FC01538DF7
:10031000448D252F30E0842F90E0821B930B5417DF
:1003200010F0CF96089501970895FC01918D828D6C
:10033000981761F0828DDF01A80FB11D5D968C9139
:10034000928D9F5F9F73928F90E008958FEF9FEF44
:100350000895FC01918D828D981731F0828DE80F00
:10036000F11D858D90E008958FEF9FEF0895FC01BA
:10037000918D228D892F90E0805C9F4F821B910987
:100380008F73992708958AE391E00E94B70121E0D5
:10039000892B09F420E0822F0895FC01848DDF0170
:1003A000A80FB11DA35ABF4F2C91848D90E00196E8
:1003B0008F739927848FA689B7892C93A089B189D7
:1003C0008C91837080648C93938D848D981306C078
:1003D0000288F389E02D80818F7D80830895EF92DC
:1003E000FF920F931F93CF93DF93EC0181E0888FEF
:1003F0009B8D8C8D981305C0E889F989808185FDD6
:1004000026C0F62E0B8D10E00F5F1F4F0F731127C4
:10041000E02E8C8DE8120CC00FB607FCFACFE889ED
:10042000F989808185FFF5CFCE010E94CD01F1CF02
:100430008B8DFE01E80FF11DE35AFF4FF0829FB74D
:10044000F8940B8FEA89FB89808180620AC09FB78C
:10045000F894EE89FF896083E889F9898081837047
:10046000806480839FBF81E090E0DF91CF911F91F6
:100470000F91FF90EF900895CF93DF93EC01888D5B
:100480008823C9F0EA89FB89808185FD05C0A88998
:10049000B9898C9186FD0FC00FB607FCF5CF80811E
:1004A00085FFF2CFA889B9898C9185FFEDCFCE0168
:1004B0000E94CD01E7CFDF91CF91089580E090E0D9
:1004C000892B29F00E94C30181110C94000008952A
:1004D000CF93DF93EC0160E08E810E94B50061E074
:1004E0008E810E94B50060E08E810E94B5008BE88D
:1004F00091E00197F1F7DF91CF910895CF92DF92CC
:10050000EF92FF920F931F93CF93DF936C017C01C7
:1005100087E0E80EF11CC0E0D0E0062F10E0B80143
:100520000C2E02C0759567950A94E2F76170F70189
:1005300081917F010E94B5002196C430D10579F7E1
:10054000C601DF91CF911F910F91FF90EF90DF9047
:10055000CF900C946802CF92DF92EF92FF920F93AC
:100560001F93CF93DF93EC01F62E642F8C810E94B2
:10057000B5008D818F3F19F060E00E94B5008F8536
:100580000F2D10E084FF25C06E0187E0C80ED11C3E
:10059000E12CF12CB8010E2C02C0759567950A94D8
:1005A000E2F76170F60181916F010E94B500FFEFE3
:1005B000EF1AFF0A88E0E816F10461F7CE01DF9137
:1005C000CF911F910F91FF90EF90DF90CF900C94FF
:1005D0006802B80184E0759567958A95E1F7CE01C8
:1005E0000E947E026F2DCE01DF91CF911F910F915E
:1005F000FF90EF90DF90CF900C947E0241E00E943C
:10060000AB0281E090E00895089580E090E00895C5
:10061000CF93DF93EC0161E088810E94E40061E008
:100620008A810E94E40061E08C810E94E40061E024
:100630008A810E94B50060E08C81DF91CF910C949B
:10064000B5000F931F93CF93DF938C01EB0177FFDE
:100650000EC061E0FC0182810E94B50060E0F801FB
:1006600084810E94B500D195C195D1090AC060E08E
:10067000FC0182810E94B50061E0F80184810E9442
:10068000B500C233D10574F4F801C08161E08C2F4C
:100690000E94E40060E08C2FDF91CF911F910F91B9
:1006A0000C94B500CB3FD10514F0CAEFD0E0F801AF
:1006B0000081118161E0802F0E94E400F801FF2792
:1006C000E255FF4FE491E33051F48091800080685F
:1006D00080938000D0938900C093880037C0E430B5
:1006E000B0F4E13029F484B5806884BDC7BD2EC064
:1006F000E23029F484B5806284BDC8BD27C0C0380B
:10070000D10514F460E001C061E0802FC5CFE7306F
:1007100041F48091B00080688093B000C093B30032
:1007200015C0E83041F48091B00080628093B00041
:10073000C093B4000BC0E43011F780918000806258
:1007400080938000D0938B00C0938A00DF91CF917B
:100750001F910F910895009769F0FC01019000200E
:10076000E9F73197AF01481B590BBC018AE391E0CF
:100770000C945C0180E090E008958F929F92AF927C
:10078000BF920F931F93CF93DF93CDB7DEB7A1979F
:100790000FB6F894DEBF0FBECDBF19A2423008F4E9
:1007A0004AE08E010F5D1F4F842E912CA12CB12C9D
:1007B000A50194010E94D408E62FB901CA01015095
:1007C0001109EA3014F4E05D01C0E95CD801EC9352
:1007D000232B242B252B61F7C8010E94AB03A19684
:1007E0000FB6F894DEBF0FBECDBFDF91CF911F9142
:1007F0000F91BF90AF909F908F900895CF92DF920E
:10080000EF92FF92CF93DF936B017C016DE28AE35D
:1008100091E00E94EF01EC0166277727CB016C196C
:100820007D098E099F094AE00E94BD038C0F9D1F20
:10083000DF91CF91FF90EF90DF90CF9008950E94CD
:10084000FC081F920F920FB60F9211242F933F9323
:100850008F939F93AF93BF93809132019091330117
:10086000A0913401B09135013091310123E0230F83
:100870002D3720F40196A11DB11D05C026E8230FD8
:100880000296A11DB11D20933101809332019093F6
:100890003301A0933401B0933501809136019091DA
:1008A0003701A0913801B09139010196A11DB11D08
:1008B0008093360190933701A0933801B0933901AA
:1008C000BF91AF919F918F913F912F910F900FBE4C
:1008D0000F901F9018951F920F920FB60F92112430
:1008E0002F933F934F935F936F937F938F939F9338
:1008F000AF93BF93EF93FF938AE391E00E94CD0102
:10090000FF91EF91BF91AF919F918F917F916F91E7
:100910005F914F913F912F910F900FBE0F901F90BD
:1009200018951F920F920FB60F9211242F938F9349
:100930009F93EF93FF93E0914A01F0914B018081E7
:10094000E0915001F091510182FD12C0908180919F
:1009500053018F5F8F7320915401821751F0E09102
:100960005301F0E0E65CFE4F958F8093530101C088
:100970008081FF91EF919F918F912F910F900FBEEA
:100980000F901F9018951F920F920FB60F9211247F
:100990002F933F934F935F936F937F938F939F9387
:1009A000AF93BF93EF93FF938091300187FF05C012
:1009B00010928500109284001BC020913001022EFD
:1009C000000C330B8091FB0190E02817390784F469
:1009D00080913001082E000C990BFC01EE0FFF1FD7
:1009E0008E0F9F1FFC01E952FE4F808186FD15C0CE
:1009F000809130018F5F8093300120913001022E71
:100A0000000C330B8091FB0190E028173907C4F4E8
:100A1000809130018C3064F113C080913001082E38
:100A2000000C990BFC01EE0FFF1F8E0F9F1FFC01A6
:100A3000E952FE4F808160E08F730E94B500D8CFED
:100A40008091840090918500049680349C4918F42C
:100A500080E49CE905C08091840090918500049613
:100A600090938900809388008FEF809330013BC082
:100A7000209184003091850080913001082E000C77
:100A8000990BFC01EE0FFF1F8E0F9F1FFC01E95217
:100A9000FE4F81819281820F931F909389008093F2
:100AA000880080913001082E000C990BFC01EE0F9C
:100AB000FF1F8E0F9F1FFC01E952FE4F808186FFB2
:100AC00012C080913001082E000C990BFC01EE0F32
:100AD000FF1F8E0F9F1FFC01E952FE4F808161E0D6
:100AE0008F730E94B500FF91EF91BF91AF919F91DD
:100AF0008F917F916F915F914F913F912F910F90C7
:100B00000FBE0F901F9018951F920F920FB60F9265
:100B100011242F933F934F935F936F937F938F9302
:100B20009F93AF93BF93CF93DF93EF93FF93209166
:100B3000FD0130E0F901E255FF4F8491F901E656DD
:100B4000FF4FD491F901EA57FF4FC491CC2379F0BC
:100B500081110E948C00EC2FF0E0EE0FFF1FE8598E
:100B6000FF4FA591B491EC91ED2381E009F480E071
:100B700020910102309102022F5F3F4F3093020219
:100B80002093010290910002953618F096E0909320
:100B9000FC019091FC019430C9F128F4923069F085
:100BA0009330D1F05EC0953009F451C0963009F011
:100BB00058C091E09093CD0251C0811152C0209154
:100BC0000102309102022436310508F442C010922D
:100BD000CD02109200021CC0813009F042C0E091A9
:100BE000000291E09E0F90930002F0E0209101023C
:100BF00030910202EE0FFF1FE450FE4F3087278333
:100C0000109202021092010294E029C0811117C0D3
:100C1000E091000291E09E0F90930002F0E020919D
:100C2000010230910202EE0FFF1FE450FE4F3087A9
:100C30002783109202021092010293E010C02091CB
:100C40000102309102022536310558F007C08111AA
:100C500008C0109202021092010203C095E0909326
:100C6000FC019091FF019923B9F081110AC0809194
:100C7000FE01882321F08091FE0161E009C02D9AD8
:100C80000BC08091FE01882331F08091FE0160E06D
:100C90000E94B50001C02D98FF91EF91DF91CF9197
:100CA000BF91AF919F918F917F916F915F914F9184
:100CB0003F912F910F900FBE0F901F901895CF93DB
:100CC000DF9310923D0110923C0188EE93E0A0E08A
:100CD000B0E080933E0190933F01A0934001B09318
:100CE000410184E091E090933B0180933A0185ECCF
:100CF00090E0909347018093460184EC90E09093BC
:100D000049018093480180EC90E090934B018093DF
:100D10004A0181EC90E090934D0180934C0182EC6C
:100D200090E090934F0180934E0186EC90E0909379
:100D3000510180935001109253011092540110926E
:100D40005501109256011092E6021092E50286E1DA
:100D500091E09093E4028093E3028CE08093E702B9
:100D60008FEF8093E8028BE08093E90284E0809328
:100D7000EA0285E08093EB0286E08093EC0287E054
:100D80008093ED021092EE021092EF021092F002A8
:100D90001092F1021092F20281E08093F60210921A
:100DA000F70280E48093F80280E18093F90280E505
:100DB0008093FA0261E08CE00E94E4008091E802F6
:100DC0008F3F19F061E00E94E40061E08091E90248
:100DD0000E94E400C3EED2E09E01235E3240809187
:100DE000F20284FD03C084E090E002C088E090E05D
:100DF0002196281739072CF461E08E810E94E400C7
:100E0000EBCF8BE39DE00197F1F760E08091E70283
:100E10000E94B50060E08091E9020E94B5008091D7
:100E2000E8028F3F19F060E00E94B5006091F20285
:100E300064FD20C063E083EE92E00E947E02CBE47A
:100E4000D6E4CE010197F1F763E083EE92E00E94D1
:100E50007E022197F1F763E083EE92E00E947E022A
:100E600083E592E00197F1F762E083EE92E00E9461
:100E70007E021EC0606240E083EE92E00E94AB0200
:100E80008BE496E40197F1F76091F202606240E032
:100E900083EE92E00E94AB0283E592E00197F1F7C6
:100EA0006091F202606240E083EE92E00E94AB0249
:100EB0006091F202606240E083EE92E00E94AB0239
:100EC00084E08093F30240E06CE083EE92E00E94C5
:100ED000AB0240E061E083EE92E00E94AB028BE364
:100EE0009FE10197F1F782E08093F40240E066E031
:100EF00083EE92E00E94AB0283E08093FD011092AA
:100F0000FF018091FB018C30A0F491E0980F909349
:100F1000FB018093E00290E0FC01EE0FFF1F8E0FBB
:100F20009F1FFC01E952FE4F88EB9BE09283818377
:100F300003C08FEF8093E0021092DB021092DA027E
:100F400081E090E09093DD028093DC0282E090E00B
:100F50009093DF028093DE0289E090E09093D502C7
:100F60008093D4028AE090E09093D7028093D602D7
:100F70008BE090E09093D9028093D80285E090E0D6
:100F80009093CF028093CE0286E090E09093D102BE
:100F90008093D00287E090E09093D3028093D202B6
:100FA000DF91CF910895789484B5826084BD84B533
:100FB000816084BD85B5826085BD85B5816085BD54
:100FC00080916E00816080936E001092810080910C
:100FD0008100826080938100809181008160809394
:100FE0008100809180008160809380008091B100B9
:100FF00084608093B1008091B00081608093B000E4
:1010000080917A00846080937A0080917A00826077
:1010100080937A0080917A00816080937A00809139
:101020007A00806880937A001092C100E0914A01B2
:10103000F0914B0182E08083E0914601F0914701FD
:101040001082E0914801F091490180E18083109283
:101050005201E0914E01F0914F0186E08083E091D2
:101060004C01F0914D01808180618083E0914C01C1
:10107000F0914D01808188608083E0914C01F09176
:101080004D01808180688083E0914C01F0914D0199
:1010900080818F7D808360E08091DE020E94E40089
:1010A00061E08091DE020E94B50084ED92E00E9432
:1010B00008038EEC92E00E9408038EE191E00E940A
:1010C000AB038091DA020E942001EC018091DC02E6
:1010D0000E942001845F9140BE01645F714077FFF0
:1010E00002C06F5F7F4F8B011595079597FD0196A5
:1010F000EC01D595C79584E291E00E94AB0386E2AE
:1011000091E00E94AB03B801012E000C880B990BF3
:1011100017FF03C00E94FE0303C04AE00E94BD0304
:101120008AE291E00E94AB03BE010D2E000C880BF9
:10113000990BD7FF03C00E94FE0303C04AE00E9440
:10114000BD03B80184ED92E00E942103BE018EEC44
:1011500092E00E9421030E9437014B015C0184E66A
:10116000C82ED12CE12CF12C0E943701DC01CB01DF
:1011700088199909AA09BB09883E9340A105B105C0
:1011800098F321E0C21AD108E108F10888EE880E30
:1011900083E0981EA11CB11CC114D104E104F10428
:1011A00019F70E945E028DCFA1E21A2EAA1BBB1B6B
:1011B000FD010DC0AA1FBB1FEE1FFF1FA217B30723
:1011C000E407F50720F0A21BB30BE40BF50B661F39
:1011D000771F881F991F1A9469F7609570958095FD
:1011E00090959B01AC01BD01CF010895EE0FFF1F4B
:1011F0000590F491E02D099481E090E0F8940C942E
:061200000109F894FFCF84
:1012060000000000EF015C0186013C02B701950178
:10121600A90100000000FE025C01050304030A0A9E
:10122600524544590A0020583A002009593A00000C
:00000001FF
